S00D00004F4C4544312E73726563C2
S21440000020274020D5134000D1134000D113400094
S214400010D1134000D1134000D1134000000000002F
S214400020000000000000000000000000D113400067
S214400030D113400000000000D1134000D11340000F
S214400040D1134000D11340001D174000A5184000B2
S214400050D1134000D1134000D1134000D1134000CB
S214400060D113400000000000350F4000490F40000B
S2144000705D0F4000D1134000D1134000D113400023
S214400080710F4000850F4000D1134000D11340004F
S214400090D1134000D1134000D1134000D11340008B
S2144000A049184000D1134000D11340007518400055
S2144000B0D1134000D1134000D1134000D11340006B
S2144000C0D1134000D1134000D1134000D11340005B
S2144000D000000000D113400000000000D113400093
S2144000E0D1134000D1134000D1134000D11340003B
S2144000F0D1134000D1134000D1134000D11340002B
S214400100D1134000D1134000D1134000D11340001A
S214400110D113400000000000000000000000000076
S214400120D1134000D1134000D1134000D1134000FA
S214400130D113400000000000D1134000D11340000E
S21440014010B5054C237833B9044B13B10448AFF3CC
S21440015000800123237010BD3C04402000000000B6
S214400160A02140000C4B43B10C480D4910B5AFF3ED
S21440017000800C48036823B910BD0A48036833B9A9
S2144001807047094B002BF7D0BDE810401847064B88
S214400190002BF5D0184700BF00000000A02140000B
S2144001A040044020A02140000000000021B94368E0
S2144001B023F0010343607047436843F00103436004
S2144001C070470162704730B485688468A54203D0A2
S2144001D085688468AC42FBD161B1C4F3015000EB42
S2144001E08005C4F3034000EB450014F4800F18BFAD
S2144001F00C30086042B1C4F3023101EB8101C4F314
S214400200032000EB4101116043B1C4F3021202EB3C
S214400210820204F00F0404EB42041C6030BC7047BA
S214400220F0B4446814F0010F05D00C2903D90C39FA
S2144002304FF4800700E000271C4CA4FB0356F6084A
S21440024006EB8605A3EB450343EA0613A4FB0265CB
S214400250ED0843EA053305EB8505A2EB450543EA81
S21440026005233B43A4FB0142D20843EA025302EB78
S2144002708202A1EB420143EA0141836913F0040F75
S214400280FBD0036843F001030360836913F0010F5A
S214400290FBD00123C3618160036823F00103036040
S2144002A0C06A00F00100F0BC704700BFCDCCCCCC9B
S2144002B0F0B5059C069D079F0E46B1B1416811F00A
S2144002C0010F05D00C2A03D90C3A4FF4800600E003
S2144002D000261949A1FB02E1C90801EB810EA2EBF9
S2144002E04E02120442EA015216435BB1124BA3FB84
S2144002F00423DB0803EB8302A4EB4204240244EA13
S2144003000334264355B10C4BA3FB0723DB0803EB12
S2144003108302A7EB420747EA03131E430269074BD3
S2144003201340036106610269054B13430361C06ACB
S21440033000F00400F0BD00BFCDCCCCCC7F7F7FFF6B
S21440034080808000F0B4049EC568C468A54203D08F
S214400350C568C468AC42FBD199B1C4F3033000EB26
S2144003608000C4F3032707EB4007C4F3021000EBFA
S214400370800504F00F0000EB4500642505FB007087
S214400380086042B1C4F3005081000844C4F30341FE
S21440039001EB4001116043B1C4F3017202EB8202EB
S2144003A0C4F3036101EB42021A6016B1C4F342542F
S2144003B03460F0BC7047000070B42A4DA5FB03467D
S2144003C0F608039C640544EA067406EB8606A3EB2F
S2144003D0460344EA0363A5FB0264E40843EA045385
S2144003E004EB8404A2EB440243EA02421E4BA3FB06
S2144003F001439B0942EA03121C4BA3FB01435B09E2
S214400400A5FB0364E40804EB8404A3EB44031A430B
S214400410A5FB0143DB0803EB8304A1EB440142EA5E
S2144004200122A5FB0315ED0805EB8505A3EB450565
S21440043042EA0532836913F0040FFBD0036843F0A9
S21440044002030360836913F0010FFBD00123C361ED
S214400450C260036823F002030360C06A00F0020033
S21440046070BC7047CDCCCCCCD34D62101F85EB51C1
S21440047030B4029D0C4651B1124CA4FB0214E40861
S21440048004EB8401A2EB4102120442EA04545BB13D
S2144004900C4AA2FB0532D20802EB8203A5EB4303CB
S2144004A01B0643EA02731C434269074B13404361F1
S2144004B044614269054B13434361C06A00F008003B
S2144004C030BC7047CDCCCCCCFFFF7F7F0000808017
S2144004D080697047C1617047034B1B6843F48023B3
S2144004E019430160002070475804402041B9094A2A
S2144004F0136823F0807313600268134303607047E9
S214400500044A136843F08073136002681343036021
S214400510704700BF580440200268034B1B681943CD
S21440052011430160704700BF58044020036823EA27
S2144005300101024B1B681943016070475804402074
S214400540826883689A4203D0826883689342FBD16C
S21440055018467047C068704770B506460D46046832
S21440056004F480344FF4803109480A4B98472DB93B
S2144005704FF0FF33736024B9002070BD013D7560B5
S214400580F9E74FF480310248034B9847F4E700BF41
S21440059030180E402D0540001905400008B5074BA1
S2144005A0984203D0064B984204D008BD1520054B10
S2144005B0984708BD2A20034B9847F6E7008000403E
S2144005C000800540B9104000436823F47023436020
S2144005D04368090401F4702119434160704730B400
S2144005E043F69924056915F0020F03D1013CF9D171
S2144005F001200CE0446814F0020F06D0120402F406
S214400600702211430BB141F08071C160002030BCB4
S214400610704732B900EB8100036B23F0010303639C
S214400620704700EB8100036B43F0010303637047A0
S21440063032B900EB8100036B23F00203036370477B
S21440064000EB8100036B43F0020303637047042A08
S21440065003D06AB1082A16D0704700EB8100036BBE
S21440066023F008030363036B43F0040303637047FC
S21440067000EB8100036B23F008030363036B23F056
S21440068004030363704700EB8100036B43F00803E9
S2144006900363E1E700EB81010B6B23F0F0030B6390
S2144006A00B6B1A430A637047431E1944B1FBF0F0C4
S2144006B0431EFE2B94BF00B24FF0FF3070477AB116
S2144006C010B4144600EB81010B6B23F47F430B639D
S2144006D00A6B42EA04220A6300205DF8044B704726
S2144006E04FF0FF30704710B489014318022444503D
S2144006F04FF0FF319962196A5A605DF8044B7047B3
S214400700890105234350704700EB8111CA61704749
S21440071000EB81114A62704700EB8111086A70470E
S214400720F0B486B002240194082402942024039452
S214400730802404940A9CE40B0594B0EB510F14D823
S2144007404C0CA04217D2012501AF57F82540B1FB0B
S214400750F4F4260C84420AD386420DD90135052D81
S214400760F3D1002006B0F0BC70470020FAE7002026
S214400770F8E70120F6E700252AB106A901EB850136
S21440078051F8141C1160002BF3D01D600120E9E7DE
S214400790014B1860704700BF5C044020024B1B684A
S2144007A003EBC010425470475C044020024B1B6869
S2144007B003EBC010405C70475C04402070B50446B4
S2144007C00D4616461BB90D4B9847B04215D03246DB
S2144007D0294620460A4B984704F00F0040F0B000E8
S2144007E0084CA047C5F3021040F01000A04705F0A3
S2144007F00F00A0473046044B984770BDAD074000F9
S2144008009D0740005D0840007D0A40002DE9F0410C
S2144008100D480E4B98470E4B984740200D4B984737
S21440082000254FF001082F460B4E002443463A461B
S214400830E1B22846B0470134802CF7D10135EDB2FD
S214400840042DF2D1BDE8F0816004402091074000BD
S2144008509D0840005D084000BD07400038B505468D
S2144008600822094B5A63094C01212046084B9847F9
S21440087001231A4629462046064CA0474FF4FD70F1
S214400880054B984738BD00BF00100E400080004022
S214400890C9054000DF054000010040202DE9F8432F
S2144008A0664D4FF400362E61C5F8A060644B0827AD
S2144008B01F61C3F8A0706E66C5F890606E656E6284
S2144008C0C5F880602A6F22F400322A676A6F22F4E5
S2144008D000326A675F66C3F890705F655F62C3F810
S2144008E080701A6F22F008021A675A6F22F00802C8
S2144008F05A671F602E601F632E63DFF87C810023DB
S2144009004FF480024FF0805140464E4CA0470023A3
S2144009104FF400124FF080514046A04700234FF05E
S21440092000724FF080514046A04700234FF48002AB
S2144009304FF080514046A04700234FF400124FF03E
S21440094080514046A04700234FF000724FF0805140
S2144009504046A0473C4C4FF00209C4F800904FF088
S2144009608008C4F80080636843F0010363603A4639
S21440097001212046354B9847002201212046344B22
S2144009809847002201212046324B9847636823F05F
S214400990020363600022012120462F4B984763687C
S2144009A023F080036360636843F0100363602B4961
S2144009B02B482C4B9847C2B2012120462A4B9847D9
S2144009C020462A4B9847012323606E6340F6B83092
S2144009D0274CA0472E6340F6B830A0472E63A82089
S2144009E0244CA0471F20A047D320A0470020A04764
S2144009F04020A047A120A047C820A047DA20A04713
S214400A004846A0478120A0478F20A047A420A04763
S214400A10A620A047D520A0474046A0478D20A04707
S214400A201420A047DB20A0474020A047D920A0475D
S214400A30F120A047AF20A047BDE8F88300120E4043
S214400A4000100E40990D4000008000404F064000C8
S214400A5013064000310640009506400080D1F0085D
S214400A6080841E00A9064000BF0640009D05400049
S214400A70010040205D08400000140E4038B5054691
S214400A800822094B1A63094C01212046084B984717
S214400A9001231A4629462046064CA0474FF4FD70CF
S214400AA0054B984738BD00BF00100E400080004000
S214400AB0C9054000DF0540000100402010B5104841
S214400AC0104B98473E2100200F4B98470F4CA047AD
S214400AD00028FCD00E4B98470E4A0F4B9A620F4C9C
S214400AE0A0470028FCD002200D4B984700200D4B15
S214400AF098470D4B98470248024B984710BD00BF99
S214400B0000A3E111A91540003510400089104000AF
S214400B1099104000013F182000060E40A9104000E2
S214400B20990F4000D10F40009D144000F8B54FF497
S214400B300042484B5A60BFF34F8FBFF36F8F464B10
S214400B400022C3F850225A6942F400325A61BFF379
S214400B504F8FBFF36F8FD3F88070C7F34E3607F0D2
S214400B6007000430C7F3C907B7FA87FE0EF01F0E1A
S214400B70BFF34F8F4FF0FF3404FA00FC06FA00F044
S214400B8004FA0EF407FA0EFE1D463A46734640EA4D
S214400B900301C5F86012013A2344B2F1FF3FF6D193
S214400BA0013E6044B6F1FF3FEFD1BFF34F8F2A4B73
S214400BB05A6942F480325A61BFF34F8FBFF36F8F4A
S214400BC0264A27495160A1F580715160BFF34F8F87
S214400BD0BFF36F8FD3F8902222F00102C3F8902221
S214400BE0D3F8942222F00102C3F89422BFF34F8F29
S214400BF0BFF36F8F0A201B4CA0470B20A0470C204A
S214400C00A0471020A0471120A047174B4FF48072F2
S214400C101A61C3F8A0201A63A3F580634FF40062FC
S214400C205A61C3F8A0205A66C3F890205A651A62E3
S214400C30C3F88420196F21F400611967596F21F4B5
S214400C4000615967C3F8C020C3F8D420C3F8B02069
S214400C50F8BD00BF50180E4000ED00E0000C0E40FE
S214400C600C08005AB910400000120E40C0F884101C
S214400C7053004FF40042B2FBF3F2013AC2F30D02C6
S214400C80C0F88C207047016370474163704721F07D
S214400C900061B1F1405F05D1836B134214BF012060
S214400CA000207047C36BF8E74264B1F1C05F3AD0AA
S214400CB013D8B1F1006F25D0B1F1805F0AD1036F30
S214400CC013430367436F416F0B4023EA02034367B6
S214400CD0426070470029FBD17047B1F1205F21D0B8
S214400CE009D8B1F1005FF3D1036F13430367436F35
S214400CF013434367ECE7B1F1405F13D0B1F1605F57
S214400D0010D0E5E710B4016F046FD34321401C4672
S214400D1019400167436F416F0B4023404367426071
S214400D205DF8044B7047036F016F0B4023EA0203E4
S214400D300367436F13434367CAE7416412F0010FEA
S214400D400DD1016612F00A0F0BD0016212F0020FAD
S214400D5009D112F0080F08D0C0F8841005E04166AB
S214400D60F0E74162F2E7C0F88010416101607047E9
S214400D7010B4019C41644CB901664BB101654AB957
S214400D804163016101605DF8044B70474166F4E7DA
S214400D904165F4E70163F4E770B582B00546164650
S214400DA01C46B1F1005F14D00AD9B1F1405F24D09F
S214400DB0B1F1605F21D0B1F1205F17D000201AE07A
S214400DC0B1F1805F05D0B1F1C05F02D0B1F1006FE4
S214400DD0F4D132462846114B984714F0010F02D101
S214400DE02E66012007E06E66012004E01A46314672
S214400DF00B4B9847012002B070BD04F001030093EE
S214400E00C4F38003B1F1605F14BF00220122314673
S214400E102846044CA0470120EDE700BFA90C40003F
S214400E203B0D4000710D4000836B0B4214BF012008
S214400E300020704712F0100F12D0C0F8B01012F019
S214400E40200F07D0C0F8D41012F0400F05D0C0F8DD
S214400E50C0107047C0F8D010F6E7C0F8C41070470E
S214400E60C0F8B410704701647047C06C7047806C1F
S214400E70704700002DE9F041044688460E4B9847DF
S214400E80054620460D4B9847054013D00C4C04F1C0
S214400E90600603E0B4420DD010345DB12068404592
S214400EA0F8D161682942F5D0E3689847636825EA37
S214400EB00305EFE7BDE8F0816B0E40006F0E400083
S214400EC060064020F8B5184C2668062E2AD84FF003
S214400ED0000C6446154F04E00134E4B2A446A64232
S214400EE009D3A64625017D598D42F5D107EB041559
S214400EF06D689542F0D10D4D4FEA0E1E05EB0E047F
S214400F0045F80E106260A3600699E16001366645BA
S214400F1005D011461A46064B98470020F8BD0249B0
S214400F200E60F6E70120F8BDD0064020600640205F
S214400F30350E400008B50A210148024B984708BDC7
S214400F40000E0E40750E400008B50B210148024BBE
S214400F50984708BD00100E40750E400008B50C219D
S214400F600148024B984708BD00120E40750E4000DF
S214400F7008B510210148024B984708BD00140E40A2
S214400F80750E400008B511210148024B984708BD30
S214400F9000160E40750E4000032811D0042812D0CB
S214400FA002280CBF4FF480710021084A136B23F4CB
S214400FB040730B431363936E13F0080FFBD07047D8
S214400FC04FF44071F1E74FF40071EEE700060E4033
S214400FD0174A136B23F0700318431063936E13F095
S214400FE0080F0AD14FF4805311498A6E12F0080F49
S214400FF003D1013BF9D1012070470D4A136B23F012
S214401000030343F002031363936E13F0080F0AD1F1
S2144010104FF4805306498A6E12F0080F05D1013B03
S214401020F9D101207047002070470020704700BF6C
S21440103000060E40A0B90E48036A090289B20D4A5E
S2144010401A400D4B1343194301620246936E13F048
S214401050010FFBD0064A116A084B0B4313627047D8
S21440106003490B6A064A1A40064B13430B62704705
S21440107000060E40FCFFC8FF0100370000003701A5
S214401080FCFFC8FE02003701024B986E00F4803029
S214401090704700BF00060E404FF00052014B9A6268
S2144010A0704700BF00060E40024B986E00F00200EC
S2144010B0704700BF00060E403F281ED81F280CD899
S2144010C0114B9A6901238340934318D0012303FAB6
S2144010D000F00D4B18610020704720380A4BD3F8BB
S2144010E008210123834093430BD0012303FA00F0E9
S2144010F0054BC3F8000100207047012070470020D0
S21440110070470020704700BF00060E407047000042
S214401110104A136F23F4C00343F480031367116A25
S2144011200D4B0B431362936E13F0080FFBD04FF436
S214401130FA7300BF013BFCD1064A136A13F0080F4E
S214401140FBD0044A136F23F4C00343F480031367B1
S214401150704700BF00060E40040037002DE9F843F4
S214401160431E042B00F20781DFE813F0050005005C
S21440117015001500F600814A136923F00403136135
S21440118001227F4B1A70BFF35F8F62B6BFF34F8F5B
S21440119030BFBDE8F883044603280CBF00204FF458
S2144011A00010784B984772B6BFF35F8F0022744B9F
S2144011B01A700122744B1A70744B1F6A1D6B744A66
S2144011C0D2F800809E6A734A3A431A6205F00309D1
S2144011D0B9F1010F40F2898025F0030141F0010189
S2144011E019631A46936E13F0080FFBD011F0700F78
S2144011F008D021F07001654B19631A46936E13F0C0
S214401200080FFBD0644B9847604A936E13F4003F38
S214401210FBD05E4A116A614B0B4043F45C13136289
S214401220936E13F4803FFBD028F47063584A1360E3
S214401230042C5CD0524C01232370BFF35F8F62B600
S214401240574B984772B6BFF35F8F0023237017F053
S214401250020F55D04D4A136A52491940524B0B4320
S2144012601362116A514B0B4043F45C131362504BAC
S2144012703340002B6ED046F00056444B9E6202210F
S214401280B9F1020F04D1414A936E13F0020FFBD01E
S2144012903E4A136B23F0700305F07000034313635C
S2144012A0936E13F0080FFBD0394BC3F80080A3F5BC
S2144012B0C0631D631A46936E13F0080FFBD0334A83
S2144012C0936E0B42FCD000222F4B1A70394B1B6892
S2144012D01BB198470022374B1A600122284B1A70E0
S2144012E0BFF35F8F62B6BDE8F88329467EE7A2F576
S2144012F0C062116A304B0B4043F45C13136299E7AB
S21440130017F0010FB3D0214B1B6A13F0010F0BD11E
S2144013101E490B6A294A1A40294B13430B620A4658
S214401320936E13F0010FFBD0184B1B6A13F0807FAF
S21440133008D1164A116A234B0B431362936E13F47B
S214401340803FFBD0114A116A184B0B4043F45C13A4
S21440135013628CE7002193E7084A136943F00403BD
S2144013601361194A194B1A600122054B1A70BFF3D4
S2144013705F8F62B630BFBDE8F88300BF00ED00E087
S2144013800A0040200D114000D406402000060E40C2
S214401390000C0E400800370099104000FFFFC8FEC2
S2144013A011114000FCFFC8FE0200370187FFC8FF4E
S2144013B00000FF07D8064020FEFFC8FFFCFFC8FF1E
S2144013C00100370000003701040000A510180E4049
S2144013D0FEE7000000B583B0254B264A9A4210D05F
S2144013E0254B234A9A420CD2013B9B1A23F0030317
S2144013F0043313441F4951F8040B42F8040B9A4235
S214401400F9D11E4B1E4A9A420AD2013B9B1A23F040
S214401410030304331344002142F8041B9342FBD1D8
S214401420184A194B23F07F039360EFF31083B3FA07
S21440143083F35B09019372B6BFF35F8F0022134BB1
S2144014401A700199124A136843F470031360BFF38D
S2144014504F8FBFF36F8F29B101220C4B1A70BFF329
S2144014605F8F62B60B4B98470B4B9847FEE700BF23
S21440147000004020A02140003C044020200740209F
S2144014803C04402000ED00E0000040000A00402000
S21440149088ED00E0E51F40000D1C40003B4B1B6BF9
S2144014A003F00303012B1DD083B1022B36D0374BFC
S2144014B01B6B03F07003702B5FD0344B1A6B3449B0
S2144014C0C2F302120B68D3400B607047314B5B6926
S2144014D013F0800F14BF4FF400424FF4FA422C4BE7
S2144014E01A60E4E7294B1B6A13F0807F03D02A4A30
S2144014F0274B1A60DBE7294A254B1A60234B1B6AA9
S21440150003F07003102B05D0202BD0D1224A204B5D
S2144015101A60CCE7224A1E4B1A60C8E71B4B1B6A70
S21440152013F0807F16D01C4A194B1A60174B1B6B62
S21440153003F00303022BBAD1144A916A926A144804
S214401540C1F30A41036801FB0333D2B2B3FBF2F3A3
S2144015500360ACE7114A0E4B1A600C4B1B6A03F053
S2144015607003102B05D0202BE0D10B4A084B1A6095
S214401570DCE70B4A064B1A60D8E7054A1368094968
S214401580A1FB03135B081360704700BF00060E40C4
S2144015900C00402010180E40001BB70000093D000C
S2144015A000127A00ABAAAAAA164B984213D9164B39
S2144015B0984215D9154B984216D9154B984217D9CB
S2144015C0144B984218D9144B984294BF134A144A65
S2144015D0144B1A6070474FF08062124B1A60704787
S2144015E0114A104B1A607047104A0E4B1A607047EB
S2144015F00F4A0C4B1A6070474FF00422094B1A6092
S214401600704700BFBFF35E017FE7BD023FDB1C04AF
S214401610FFCE7B05BFC2DA067FB639080005000458
S21440162000060004000C0E40000100040002000406
S214401630000300042DE9F0412DED028B82B0B0EEA0
S214401640408A80460F46204C002120461F4B984734
S2144016509FED1F7AC7EE087AFDEEE77ACDED017A68
S214401660BDF8041020461B4B984717F4803F16D110
S214401670194B0822C3F88020C3F88021802183F8C4
S21440168003131A6017F4403F19D14FF440310E4807
S214401690124B984702B0BDEC028BBDE8F081204665
S2144016A00F4B98470446084E0D4D3046A847844297
S2144016B0FBD004EB080104480A4B9847D8E7394664
S2144016C00148094B9847E5E730180E40ED044000C6
S2144016D000000047D904400000E100E02D0540002E
S2144016E041054000590540001905400008B54FF037
S2144016F080524FF020510648064B984718B90122B1
S214401700054B1A7008BD0022034B1A7008BD00BF77
S21440171000140E408F0C4000DC06402038B50F48C1
S2144017200F4B984710F0020F02D001220D4B1A7053
S2144017300A4D042128460C4CA04702212846A047C3
S21440174001212846A04708212846A04710212846C0
S214401750A04720212846A04738BD00BF60180E404D
S214401760D1044000DD064020D504400010B582B0CC
S21440177004460C20054B98470023009322464FF41E
S21440178080710348034CA04702B010BDB91040001A
S21440179000120E40710D400010B582B004460A207B
S2144017A0054B984700230093224601210348044CEA
S2144017B0A04702B010BD00BFB9104000000E0E405A
S2144017C0710D400010B582B004460C20054B98477A
S2144017D00023009322464FF080410348034CA04725
S2144017E002B010BDB910400000120E40710D40000E
S2144017F010B582B004460B20054B98470023009353
S214401800224604210348044CA04702B010BD00BF46
S214401810B910400000100E40710D400038B5044627
S2144018200D46064B984720B929462046044B984714
S21440183038BD29462046034B984738BD290E400000
S214401840870C40008B0C400000B583B00121054852
S214401850054B9847019001210448054B984703B033
S2144018605DF804FB00C0004019074000000E0E4023
S2144018701D18400000B583B001210648064B984726
S21440188001904FF480710548054B984703B05DF8CA
S21440189004FB00BF000001401907400000120E4044
S2144018A01D18400010B50C480C4B9847044610F0E5
S2144018B0010F03D114F0020F08D110BD4FF4803150
S2144018C01020B1EE000A064B9847F3E74FF08041F0
S2144018D00448054B9847F0E730180E405505400041
S2144018E03516400000120E401D1840002DE9F04706
S2144018F0B0F1000830DD0F46CD17184BA1FB0301B1
S21440190003FB051141F22C72002341F22B74002593
S21440191000196941124CA04782460024114EDFF858
S2144019205090114D0AE03320A847042130460F4B13
S21440193098473320A8470134A0450DD004213046AF
S214401940C847002FEFD05046A84704213046074BE3
S21440195098475046A847EEE7BDE8F08700A3E11158
S214401960D51C400000100E4001004020870C40006F
S2144019708B0C40002DE9F04385B006460C461746D2
S214401980984608461C4B98471C4D009502AB03AA48
S21440199029464046DFF88090C847029A42F4804283
S2144019A039463046164B9847039AB5FBF2F2B2FBDF
S2144019B0F8F239463046134B984763B2002B13DB98
S2144019C0114A8021D1545B0904F01F04012202FA17
S2144019D004F40E4A42F823401022394630460C4B57
S2144019E0984705B0BDE8F08304F00F01094A0A4461
S2144019F080211176E7E700BFB910400000A3E1114F
S214401A00E70640000907400000E400E000E100E08F
S214401A1011074000FCEC00E02107400082B070B5A2
S214401A2082B005460C4606A981E80C0002201D4BF4
S214401A309847002128461C4B9847099B0093089BD3
S214401A40079A06992846194EB0470C9B0B9A0A9956
S214401A502846174EB04762B2E4B204F01F01012395
S214401A608B405609134800EB8601C1F88030C1F818
S214401A708031002A0FDB0F491144802281F8002371
S214401A8040F826300D9928460B4B984702B0BDE8E3
S214401A90704002B0704704F00F04084A8021115588
S214401AA0EEE700BFB9104000AD014000B90340006A
S214401AB02102400000E100E0C301400014ED00E0D8
S214401AC0F0B58FB0384B98474FF40042374B5A60CA
S214401AD0374B9847374B98470120374B984701205C
S214401AE0364B98470120364B98470120354B984750
S214401AF01020354B9847354C09234FF080524FF015
S214401B0020512046324DA8473C224FF08051204677
S214401B10304B9847304B009340234FF08052102173
S214401B2020462E4DA8474FF0805120462C4B9847D4
S214401B3020462C4B98472C4B4FF480341C60802218
S214401B4083F81023294D0423012218212846284FC4
S214401B50B84701212846274DA847274E052301228E
S214401B601B213046B84701213046A8472146102061
S214401B70B1EE000A214B984707AC214D0FCD0FC45C
S214401B8095E8070084E80700022605966C4609ADEE
S214401B900FCD0FC42B68236007AB0CCB31461948DA
S214401BA0194CA0470FB0F0BDBD0A400050180E407B
S214401BB02D0B40000D0840006D174000991740005F
S214401BC0C5174000F1174000B910400000140E4001
S214401BD0990D40006D0C4000ED164000C50E4000CB
S214401BE0670E40006B0E400000E100E000C0004081
S214401BF075194000010740000000014035164000BE
S214401C005421400060180E401D1A400080B584B034
S214401C101F4B98471F4E204D204C1AE0204B1A6809
S214401C20204B1B6800930123194620461E4FB84799
S214401C301E4B1A68336814330293012101912B68B6
S214401C4000930B4620461A4FB84714E00220194B23
S214401C50984733462A4615492046174FB847174BEC
S214401C600093104B0E4A16492046164FB847164B5F
S214401C701B78002BD2D1154B1B78002BE6D0C82101
S214401C800520134B98470022104B1A70DEE700BF22
S214401C90C11A4000F4064020F006402060180E406E
S214401CA0E8064020F806402071044000E406402044
S214401CB0B10240005D114000C7014000EC064020E4
S214401CC0E006402045034000DC064020DD0640207C
S214401CD0ED18400053B94AB9002908BF00281CBF78
S214401CE04FF0FF314FF0FF3000F07AB9ADF1080CFD
S214401CF06DE904CE00F006F8DDF804E0DDE90223E5
S214401D0004B070472DE9F0478C460D460446089EC1
S214401D10002B51D18A4217466DD9B2FA82FEBEF1E7
S214401D20000F0BD0CEF1200C01FA0EF520FA0CFC79
S214401D3002FA0EF74CEA050C00FA0EF44FEA174A80
S214401D40250CBCFBFAF81FFA87F90AFB18CC45EAC3
S214401D500C4508FB09F3AB420AD9ED1908F1FF32EE
S214401D6080F02381AB4240F22081A8F102083D4436
S214401D70ED1AA4B2B5FBFAF00AFB105544EA054446
S214401D8000FB09F9A14509D9E41900F1FF3380F0B9
S214401D900A81A14540F2078102383C44A4EB09047D
S214401DA040EA08400021002E61D024FA0EF40023B9
S214401DB034607360BDE8F0878B4207D9002E54D05C
S214401DC0002186E821000846BDE8F087B3FA83F193
S214401DD0002940F08E80AB4202D3824200F2FA8065
S214401DE0841A65EB03050120AC46002E3FD086E8FA
S214401DF01010BDE8F08712B90127B7FBF2F7B7FA23
S214401E0087FEBEF1000F34D1EB1B3A0C1FFA87FC5D
S214401E100121B3FBF2F8250C02FB183345EA0345D3
S214401E200CFB08F3AB4207D9ED1908F1FF3002D29C
S214401E30AB4200F2D1808046ED1AA3B2B5FBF2F079
S214401E4002FB105543EA05440CFB00FCA44507D9A9
S214401E50E41900F1FF3302D2A44500F2B8801846D8
S214401E60A4EB0C0440EA08409DE731463046BDE806
S214401E70F087CEF1200405FA0EF307FA0EF720FAA3
S214401E8004F83A0C25FA04F448EA0308B4FBF2F1E5
S214401E904FEA184502FB11441FFA87FC45EA044501
S214401EA001FB0CF3AB4200FA0EF409D9ED1901F12F
S214401EB0FF3080F08A80AB4240F2878002393D4452
S214401EC0EB1A1FFA88F5B3FBF2F002FB103345EA33
S214401ED0034500FB0CF3AB4207D9ED1900F1FF3880
S214401EE06FD2AB426DD902383D44EB1A40EA01410D
S214401EF08FE7C1F1200722FA07F88B4005FA01F474
S214401F0048EA030320FA07FE4FEA134CFD404EEA28
S214401F10040EB5FBFCF94FEA1E440CFB19551FFA9C
S214401F2083F844EA054509FB08F4AC4202FA01F29C
S214401F3000FA01FA08D9ED1809F1FF3043D2AC4255
S214401F4041D9A9F102091D442D1B1FFA8EFEB5FB8F
S214401F50FCF00CFB10554EEA054400FB08F8A04583
S214401F6007D9E41800F1FF3529D2A04527D9023811
S214401F701C4440EA0940A4EB0804A0FB02894C45F7
S214401F80C6464D4615D312D056B1BAEB0E0364EB97
S214401F90050404FA07F7CB401F43CC403760746013
S214401FA00021BDE8F0871846F8E69046E0E6C245D0
S214401FB0EAD2B8EB020E69EB03050138E4E728469F
S214401FC0D7E7404691E78146BEE7014678E70238C4
S214401FD03C4445E7084608E7A8F102083D442BE79D
S214401FE0704700BF70B50F4E0F4D761BB61018BF2A
S214401FF0002405D0013455F8043B9847A642F9D151
S2144020000A4E0B4D761B00F0B5F8B61018BF0024EC
S21440201006D0013455F8043B9847A642F9D170BD26
S21440202070BD00BF802140008021400088214000D4
S21440203080214000024B13B1024800F005B87047BB
S2144020400000000055204000002301461A4618466E
S21440205000F01EB838B50A4C0A4D641BA4100AD0CE
S21440206004F18043013B05EB8305013C55F80439F8
S2144020709847002CF9D1BDE8384000F085B800BF3D
S2144020809821400094214000704700BF704700BF31
S2144020902DE9F8432C4D0646286898460F4691464B
S2144020A0FFF7F2FF294B1C68D4F84831002B3ED08E
S2144020B05A681F2A1CDC02F1010E76B103EB82013E
S2144020C00124C1F88890D3F8880194402043022E1A
S2144020D0C3F88801C1F8088123D00232C3F804E06F
S2144020E0286843F82270FFF7D1FF0020BDE8F88348
S2144020F0174B0BB34FF4C870AFF300800346D8B10C
S214402100D4F848210260002141600A46C4F84801DC
S2144021104FF0010EC0F88811C0F88C11002EDCD0AC
S214402120CCE7D3F88C110C43C3F88C41D5E704F5C3
S214402130A673C4F84831BBE72868FFF7A7FF4FF0FF
S214402140FF30BDE8F88300BF3804402070214000CF
S21440215000000000E207000003000000130000003B
S2144021600C0000000F0000002D00000001000000E1
S21440217010004020F8B500BFF8BC08BC9E4670472B
S2144021803520400065014000F8B500BFF8BC08BCEB
S20C4021909E46704741014000E5
S20C4021986CFBFF7F0100000014
S2144021A0BFF35F8F0138FBD17047010000093D0047
S2144021B000000000FC02402064034020CC03402086
S2144021C000000000000000000000000000000000CA
S2144021D000000000000000000000000000000000BA
S2144021E000000000000000000000000000000000AA
S2144021F0000000000000000000000000000000009A
S2144022000000000000000000000000000000000089
S2144022100000000000000000000000000000000079
S2144022200000000000000000000000000000000069
S2144022300000000000000000000000000000000059
S2144022400000000000000000000000000000000049
S2144022500000000000000000010000000000000038
S2144022600E33CDAB34126DE6ECDE05000B000000FD
S2144022700000000000000000000000000000000019
S2144022800000000000000000000000000000000009
S21440229000000000000000000000000000000000F9
S2144022A000000000000000000000000000000000E9
S2104025D00000000000000000FC06402058
S8044013D5D3
