S00D00004F4C4544312E73726563C2
S214400000F02C40204916400045164000451640005A
S21440001045164000451640004516400000000000CA
S21440002000000000000000000000000045164000F0
S21440003045164000000000004516400045164000AA
S2144000404516400045164000C9194000A91B40000F
S21440005045164000451640004516400045164000EF
S2144000604516400000000000A9114000BD114000A8
S214400070D111400045164000451640004516400048
S214400080E5114000F9114000451640004516400075
S21440009045164000451640004516400045164000AF
S2144000A0211B400045164000451640004D1B4000B1
S2144000B0451640004516400045164000451640008F
S2144000C0451640004516400045164000451640007F
S2144000D000000000451640000000000045164000A5
S2144000E0451640004516400045164000451640005F
S2144000F0451640004516400045164000451640004F
S2144001007D1B400045164000451640004516400001
S21440011045164000000000000000000000000000FF
S214400120451640004516400045164000451640001E
S21440013045164000000000004516400045164000A9
S21440014010B5054C237833B9044B13B10448AFF3CC
S21440015000800123237010BDD0094020000000001D
S2144001604C7640000C4B43B10C480D4910B5AFF3EC
S21440017000800C48036823B910BD0A48036833B9A9
S2144001807047094B002BF7D0BDE810401847064B88
S214400190002BF5D0184700BF000000004C7640000A
S2144001A0D40940204C7640000000000021B9436846
S2144001B023F0010343607047436843F00103436004
S2144001C070470162704730B485688468A54203D0A2
S2144001D085688468AC42FBD161B1C4F3015000EB42
S2144001E08005C4F3034000EB450014F4800F18BFAD
S2144001F00C30086042B1C4F3023101EB8101C4F314
S214400200032000EB4101116043B1C4F3021202EB3C
S214400210820204F00F0404EB42041C6030BC7047BA
S214400220F0B4446814F0010F05D00C2903D90C39FA
S2144002304FF4800700E000271C4CA4FB0356F6084A
S21440024006EB8605A3EB450343EA0613A4FB0265CB
S214400250ED0843EA053305EB8505A2EB450543EA81
S21440026005233B43A4FB0142D20843EA025302EB78
S2144002708202A1EB420143EA0141836913F0040F75
S214400280FBD0036843F001030360836913F0010F5A
S214400290FBD00123C3618160036823F00103036040
S2144002A0C06A00F00100F0BC704700BFCDCCCCCC9B
S2144002B0F0B5059C069D079F0E46B1B1416811F00A
S2144002C0010F05D00C2A03D90C3A4FF4800600E003
S2144002D000261949A1FB02E1C90801EB810EA2EBF9
S2144002E04E02120442EA015216435BB1124BA3FB84
S2144002F00423DB0803EB8302A4EB4204240244EA13
S2144003000334264355B10C4BA3FB0723DB0803EB12
S2144003108302A7EB420747EA03131E430269074BD3
S2144003201340036106610269054B13430361C06ACB
S21440033000F00400F0BD00BFCDCCCCCC7F7F7FFF6B
S21440034080808000F0B4049EC568C468A54203D08F
S214400350C568C468AC42FBD199B1C4F3033000EB26
S2144003608000C4F3032707EB4007C4F3021000EBFA
S214400370800504F00F0000EB4500642505FB007087
S214400380086042B1C4F3005081000844C4F30341FE
S21440039001EB4001116043B1C4F3017202EB8202EB
S2144003A0C4F3036101EB42021A6016B1C4F342542F
S2144003B03460F0BC7047000070B42A4DA5FB03467D
S2144003C0F608039C640544EA067406EB8606A3EB2F
S2144003D0460344EA0363A5FB0264E40843EA045385
S2144003E004EB8404A2EB440243EA02421E4BA3FB06
S2144003F001439B0942EA03121C4BA3FB01435B09E2
S214400400A5FB0364E40804EB8404A3EB44031A430B
S214400410A5FB0143DB0803EB8304A1EB440142EA5E
S2144004200122A5FB0315ED0805EB8505A3EB450565
S21440043042EA0532836913F0040FFBD0036843F0A9
S21440044002030360836913F0010FFBD00123C361ED
S214400450C260036823F002030360C06A00F0020033
S21440046070BC7047CDCCCCCCD34D62101F85EB51C1
S21440047030B4029D0C4651B1124CA4FB0214E40861
S21440048004EB8401A2EB4102120442EA04545BB13D
S2144004900C4AA2FB0532D20802EB8203A5EB4303CB
S2144004A01B0643EA02731C434269074B13404361F1
S2144004B044614269054B13434361C06A00F008003B
S2144004C030BC7047CDCCCCCCFFFF7F7F0000808017
S2144004D080697047C1617047034B1B6843F48023B3
S2144004E01943016000207047EC09402041B9094A91
S2144004F0136823F0807313600268134303607047E9
S214400500044A136843F08073136002681343036021
S214400510704700BFEC0940200268034B1B68194334
S21440052011430160704700BFEC094020036823EA8E
S2144005300101024B1B68194301607047EC094020DB
S214400540826883689A4203D0826883689342FBD16C
S21440055018467047C068704770B506460D46046832
S21440056004F480344FF4803109480A4B98472DB93B
S2144005704FF0FF33736024B9002070BD013D7560B5
S214400580F9E74FF480310248034B9847F4E700BF41
S21440059030180E402D0540001905400008B5074BA1
S2144005A0984203D0064B984204D008BD1520054B10
S2144005B0984708BD2A20034B9847F6E7008000403E
S2144005C0008005402D134000436823F470234360A9
S2144005D04368090401F4702119434160704730B400
S2144005E043F69924056915F0020F03D1013CF9D171
S2144005F001200CE0446814F0020F06D0120402F406
S214400600702211430BB141F08071C160002030BCB4
S214400610704732B900EB8100036B23F0010303639C
S214400620704700EB8100036B43F0010303637047A0
S21440063032B900EB8100036B23F00203036370477B
S21440064000EB8100036B43F0020303637047042A08
S21440065003D06AB1082A16D0704700EB8100036BBE
S21440066023F008030363036B43F0040303637047FC
S21440067000EB8100036B23F008030363036B23F056
S21440068004030363704700EB8100036B43F00803E9
S2144006900363E1E700EB81010B6B23F0F0030B6390
S2144006A00B6B1A430A637047431E1944B1FBF0F0C4
S2144006B0431EFE2B94BF00B24FF0FF3070477AB116
S2144006C010B4144600EB81010B6B23F47F430B639D
S2144006D00A6B42EA04220A6300205DF8044B704726
S2144006E04FF0FF30704710B489014318022444503D
S2144006F04FF0FF319962196A5A605DF8044B7047B3
S21440070089010523435070478901022343507047AF
S21440071000EB8111CA61704700EB81114A62704755
S21440072000EB8111086A7047F0B486B00224019449
S2144007300824029420240394802404940A9CE40B06
S2144007400594B0EB510F14D84C0CA04217D201259B
S21440075001AF57F82540B1FBF4F4260C84420AD387
S21440076086420DD90135052DF3D1002006B0F0BCE8
S21440077070470020FAE70020F8E70120F6E700255A
S2144007802AB106A901EB850151F8141C1160002B13
S214400790F3D01D600120E9E7014B1860704700BFA9
S2144007A0F0094020024B1B6803EBC01042547047D0
S2144007B0F0094020024B1B6803EBC010405C7047BA
S2144007C0F00940202DE9F0478418802C02DDC0F166
S2144007D08004E2B222B3CD08A1EBC501012606FA99
S2144007E001F1CEB2012B1DD0002B35D0022B17D1F4
S2144007F00138C7B2D419E4B2DFF890A04FF0000930
S214400800DFF88C8021462846D04786EA00024B46D1
S214400810D2B221462846C047013CE4B2BC42F1D1A0
S214400820BDE8F0870138C7B2D419E4B2DFF85CA05F
S2144008304FF00009DFF8588021462846D04746EA60
S21440084000024B46D2B221462846C047013CE4B29D
S214400850BC42F1D1BDE8F0870138C7B2D419E4B242
S214400860DFF82880CE43DFF8289021462846C04748
S21440087006EA00020023D2B221462846C847013C79
S214400880E4B2BC42F1D1BDE8F08700BFC50A4000E3
S214400890C10940002DE9F8439DF820708BB11C46F5
S2144008A0904606464D1EEDB22C44E4B2DFF8189052
S2144008B03B46424621463046C847013CE4B2AC423D
S2144008C0F6D1BDE8F88300BFC50740002DE9F04FDC
S2144008D083B00446884691469B465B7A9BF8082040
S2144008E00021009149464046214DA8479BF80030DC
S2144008F013B103B0BDE8F08F9BF80820D30812F080
S214400900070F18BF01339BF809A09BF80A70E71B36
S21440091017FB0AF717FB03F7DBF8043013FA87F7E1
S2144009201FE06400E4B20135EBB29E4210D9EBB250
S21440093008EB0300C0B213F0070F08BF17F8014BCF
S21440094014F0800FEDD0012249460A4B9847E8E75D
S21440095009F101095FFA89F90AF1FF3A1AF0FF0A2C
S214400960C7D09BF80860002EF2D000252C46DEE764
S21440097095084000610A40002DE9F8430446904639
S2144009801D4689460D4F0E4608E06A7A01324244BB
S2144009905FFA82F8B14614F8013F6BB120780A2816
S2144009A0F3D00D28F7D02B4642464946B8472B7A17
S2144009B099445FFA89F9EEE7BDE8F883CD08400030
S2144009C070B504460D4616461BB90D4B9847B042C7
S2144009D015D03246294620460A4B984704F00F0069
S2144009E040F0B000084CA047C5F3021040F010009D
S2144009F0A04705F00F00A0473046044B984770BD0F
S214400A00B5074000A5074000D10A4000F10C400061
S214400A102DE9F0410D480E4B98470E4B9847402025
S214400A200D4B984700254FF001082F460B4E0024EB
S214400A3043463A46E1B22846B0470134802CF7D1C7
S214400A400135EDB2042DF2D1BDE8F081F409402025
S214400A5099074000110B4000D10A4000C1094000F0
S214400A60C3092AD11F2928D82DE9F0411446054646
S214400A70CE08A1EBC601012202FA01F75FFA87F819
S214400A80014630460D4B98470246012C09D064B1CA
S214400A90022C0ED0002329463046094CA047BDE81C
S214400AA0F08148EA0002D2B2F4E720EA0702D2B266
S214400AB0F0E788EA0002D2B2ECE77047B50740009C
S214400AC0C109400008B5014B984708BDB50740002E
S214400AD038B505460822094B5A63094C0121204681
S214400AE0084B984701231A4629462046064CA047FD
S214400AF04FF4FD70054B984738BD00BF00100E40C0
S214400B0000800040C9054000DF054000010040204D
S214400B102DE9F843664D4FF400362E61C5F8A060C7
S214400B20644B08271F61C3F8A0706E66C5F89060D6
S214400B306E656E62C5F880602A6F22F400322A67BE
S214400B406A6F22F400326A675F66C3F890705F652A
S214400B505F62C3F880701A6F22F008021A675A6FF5
S214400B6022F008025A671F602E601F632E63DFF86C
S214400B707C8100234FF480024FF0805140464E4C1B
S214400B80A04700234FF400124FF080514046A04744
S214400B9000234FF000724FF080514046A04700239C
S214400BA04FF480024FF080514046A04700234FF458
S214400BB000124FF080514046A04700234FF000728D
S214400BC04FF080514046A0473C4C4FF00209C4F8D5
S214400BD000904FF08008C4F80080636843F001033B
S214400BE063603A4601212046354B98470022012152
S214400BF02046344B9847002201212046324B9847E6
S214400C00636823F0020363600022012120462F4BD5
S214400C109847636823F080036360636843F010037B
S214400C2063602B492B482C4B9847C2B20121204683
S214400C302A4B984720462A4B9847012323606E63E9
S214400C4040F6B830274CA0472E6340F6B830A04751
S214400C502E63A820244CA0471F20A047D320A0479F
S214400C600020A0474020A047A120A047C820A0477A
S214400C70DA20A0474846A0478120A0478F20A047BB
S214400C80A420A047A620A047D520A0474046A0477E
S214400C908D20A0471420A047DB20A0474020A04737
S214400CA0D920A047F120A047AF20A047BDE8F88351
S214400CB000120E4000100E400D1040000080004014
S214400CC04F0640001306400031064000950640009F
S214400CD080D1F00880841E00A9064000BF06400070
S214400CE09D05400001004020D10A400000140E40FF
S214400CF038B505460822094B1A63094C012120469F
S214400D00084B984701231A4629462046064CA047DA
S214400D104FF4FD70054B984738BD00BF00100E409D
S214400D2000800040C9054000DF054000010040202B
S214400D3010B51048104B98473E2100200F4B98475F
S214400D400F4CA0470028FCD00E4B98470E4A0F4B3E
S214400D509A620F4CA0470028FCD002200D4B9847C3
S214400D6000200D4B98470D4B98470248024B98473A
S214400D7010BD00BF00A3E1111D184000A91240009D
S214400D80FD1240000D134000013F182000060E40A3
S214400D901D1340000D124000451240001117400040
S214400DA0F8B54FF40042484B5A60BFF34F8FBFF33D
S214400DB06F8F464B0022C3F850225A6942F40032E5
S214400DC05A61BFF34F8FBFF36F8FD3F88070C7F36E
S214400DD04E3607F007000430C7F3C907B7FA87FE58
S214400DE00EF01F0EBFF34F8F4FF0FF3404FA00FC97
S214400DF006FA00F004FA0EF407FA0EFE1D463A46CE
S214400E00734640EA0301C5F86012013A2344B2F142
S214400E10FF3FF6D1013E6044B6F1FF3FEFD1BFF34E
S214400E204F8F2A4B5A6942F480325A61BFF34F8F34
S214400E30BFF36F8F264A27495160A1F580715160F4
S214400E40BFF34F8FBFF36F8FD3F8902222F001028B
S214400E50C3F89022D3F8942222F00102C3F89422D9
S214400E60BFF34F8FBFF36F8F0A201B4CA0470B205A
S214400E70A0470C20A0471020A0471120A047174BA2
S214400E804FF480721A61C3F8A0201A63A3F58063FA
S214400E904FF400625A61C3F8A0205A66C3F8902007
S214400EA05A651A62C3F88420196F21F400611967E5
S214400EB0596F21F400615967C3F8C020C3F8D420A5
S214400EC0C3F8B020F8BD00BF50180E4000ED00E05B
S214400ED0000C0E400C08005A2D13400000120E4025
S214400EE0C0F8841053004FF40042B2FBF3F2013ACC
S214400EF0C2F30D02C0F88C2070470163704741630F
S214400F00704721F00061B1F1405F05D1836B134219
S214400F1014BF012000207047C36BF8E74264B1F16C
S214400F20C05F3AD013D8B1F1006F25D0B1F1805FE1
S214400F300AD1036F13430367436F416F0B4023EAA5
S214400F4002034367426070470029FBD17047B1F106
S214400F50205F21D009D8B1F1005FF3D1036F13436E
S214400F600367436F13434367ECE7B1F1405F13D029
S214400F70B1F1605F10D0E5E710B4016F046FD34362
S214400F8021401C4619400167436F416F0B40234088
S214400F90436742605DF8044B7047036F016F0B4038
S214400FA023EA02030367436F13434367CAE7416478
S214400FB012F0010F0DD1016612F00A0F0BD001623C
S214400FC012F0020F09D112F0080F08D0C0F88410B2
S214400FD005E04166F0E74162F2E7C0F88010416103
S214400FE00160704710B4019C41644CB901664BB136
S214400FF001654AB94163016101605DF8044B704781
S2144010004166F4E74165F4E70163F4E770B582B002
S214401010054616461C46B1F1005F14D00AD9B1F118
S214401020405F24D0B1F1605F21D0B1F1205F17D08E
S21440103000201AE0B1F1805F05D0B1F1C05F02D068
S214401040B1F1006FF4D132462846114B984714F060
S214401050010F02D12E66012007E06E66012004E0F3
S2144010601A4631460B4B9847012002B070BD04F03B
S21440107001030093C4F38003B1F1605F14BF002204
S214401080012231462846044CA0470120EDE700BF28
S2144010901D0F4000AF0F4000E50F4000836B0B4232
S2144010A014BF01200020704712F0100F12D0C0F875
S2144010B0B01012F0200F07D0C0F8D41012F0400F36
S2144010C005D0C0F8C0107047C0F8D010F6E7C0F89A
S2144010D0C4107047C0F8B410704701647047C06CC5
S2144010E07047806C704700002DE9F0410446884602
S2144010F00E4B9847054620460D4B9847054013D063
S2144011000C4C04F1600603E0B4420DD010345DB1DF
S21440111020684045F8D161682942F5D0E368984791
S214401120636825EA0305EFE7BDE8F081DF1040007D
S214401130E3104000F40B4020F8B5184C2668062E05
S2144011402AD84FF0000C6446154F04E00134E4B250
S214401150A446A64209D3A64625017D598D42F5D11F
S21440116007EB04156D689542F0D10D4D4FEA0E1E03
S21440117005EB0E0445F80E106260A3600699E16028
S2144011800136664505D011461A46064B984700205C
S214401190F8BD02490E60F6E70120F8BD640C402019
S2144011A0F40B4020A910400008B50A210148024B24
S2144011B0984708BD000E0E40E910400008B50B21C8
S2144011C00148024B984708BD00100E40E910400009
S2144011D008B50C210148024B984708BD00120E4046
S2144011E0E910400008B510210148024B984708BD59
S2144011F000140E40E910400008B511210148024B8A
S214401200984708BD00160E40E9104000032811D04C
S214401210042812D002280CBF4FF480710021084ADF
S214401220136B23F440730B431363936E13F0080F52
S214401230FBD070474FF44071F1E74FF40071EEE792
S21440124000060E40174A136B23F0700318431063D2
S214401250936E13F0080F0AD14FF4805311498A6EEB
S21440126012F0080F03D1013BF9D1012070470D4A17
S214401270136B23F0030343F002031363936E13F0E0
S214401280080F0AD14FF4805306498A6E12F0080FB1
S21440129005D1013BF9D1012070470020704700205E
S2144012A0704700BF00060E40A0B90E48036A090208
S2144012B089B20D4A1A400D4B134319430162024648
S2144012C0936E13F0010FFBD0064A116A084B0B438E
S2144012D01362704703490B6A064A1A40064B13438B
S2144012E00B62704700060E40FCFFC8FF0100370047
S2144012F000003701FCFFC8FE02003701024B986E23
S21440130000F48030704700BF00060E404FF0005299
S214401310014B9A62704700BF00060E40024B986E23
S21440132000F00200704700BF00060E403F281ED85F
S2144013301F280CD8114B9A6901238340934318D039
S214401340012303FA00F00D4B186100207047203847
S2144013500A4BD3F808210123834093430BD0012343
S21440136003FA00F0054BC3F8000100207047012047
S2144013707047002070470020704700BF00060E40B0
S21440138070470000104A136F23F4C00343F48003F1
S2144013901367116A0D4B0B431362936E13F0080FDD
S2144013A0FBD04FF4FA7300BF013BFCD1064A136AE8
S2144013B013F0080FFBD0044A136F23F4C00343F422
S2144013C080031367704700BF00060E4004003700D6
S2144013D02DE9F843431E042B00F20781DFE813F0A3
S2144013E00500050015001500F600814A136923F034
S2144013F00403136101227F4B1A70BFF35F8F62B6FE
S214401400BFF34F8F30BFBDE8F883044603280CBFB8
S21440141000204FF40010784B984772B6BFF35F8FAA
S2144014200022744B1A700122744B1A70744B1F6A58
S2144014301D6B744AD2F800809E6A734A3A431A6219
S21440144005F00309B9F1010F40F2898025F0030148
S21440145041F0010119631A46936E13F0080FFBD052
S21440146011F0700F08D021F07001654B19631A46D1
S214401470936E13F0080FFBD0644B9847604A936E08
S21440148013F4003FFBD05E4A116A614B0B4043F4B5
S2144014905C131362936E13F4803FFBD028F47063A2
S2144014A0584A1360042C5CD0524C01232370BFF37F
S2144014B05F8F62B6574B984772B6BFF35F8F002375
S2144014C0237017F0020F55D04D4A136A52491940FF
S2144014D0524B0B431362116A514B0B4043F45C135F
S2144014E01362504B3340002B6ED046F00056444BB0
S2144014F09E620221B9F1020F04D1414A936E13F065
S214401500020FFBD03E4A136B23F0700305F07000C9
S21440151003431363936E13F0080FFBD0394BC3F8A5
S2144015200080A3F5C0631D631A46936E13F0080F40
S214401530FBD0334A936E0B42FCD000222F4B1A70DE
S214401540394B1B681BB198470022374B1A60012263
S214401550284B1A70BFF35F8F62B6BDE8F883294602
S2144015607EE7A2F5C062116A304B0B4043F45C1331
S214401570136299E717F0010FB3D0214B1B6A13F0A3
S214401580010F0BD11E490B6A294A1A40294B1343B7
S2144015900B620A46936E13F0010FFBD0184B1B6A82
S2144015A013F0807F08D1164A116A234B0B4313620F
S2144015B0936E13F4803FFBD0114A116A184B0B40D0
S2144015C043F45C1313628CE7002193E7084A1369DF
S2144015D043F004031361194A194B1A600122054B64
S2144015E01A70BFF35F8F62B630BFBDE8F88300BFA6
S2144015F000ED00E01800402081134000680C4020B9
S21440160000060E40000C0E40080037000D13400048
S214401610FFFFC8FE85134000FCFFC8FE02003701EE
S21440162087FFC8FF0000FF076C0C4020FEFFC8FF86
S214401630FCFFC8FF0100370000003701040000A58A
S21440164010180E40FEE7000000B583B0254B264A32
S2144016509A4210D0254B234A9A420CD2013B9B1A01
S21440166023F00303043313441F4951F8040B42F894
S214401670040B9A42F9D11E4B1E4A9A420AD2013BAB
S2144016809B1A23F0030304331344002142F8041B3F
S2144016909342FBD1184A194B23F07F039360EFF334
S2144016A01083B3FA83F35B09019372B6BFF35F8F7F
S2144016B00022134B1A700199124A136843F47003C0
S2144016C01360BFF34F8FBFF36F8F29B101220C4BCE
S2144016D01A70BFF35F8F62B60B4B98470B4B984719
S2144016E0FEE700BF000040204C764000D009402076
S2144016F0F00C4020D009402000ED00E00000400003
S2144017001800402088ED00E03D234000BD1E40000C
S2144017103B4B1B6B03F00303012B1DD083B1022B05
S21440172036D0374B1B6B03F07003702B5FD0344BB7
S2144017301A6B3449C2F302120B68D3400B607047F1
S214401740314B5B6913F0800F14BF4FF400424FF4E7
S214401750FA422C4B1A60E4E7294B1B6A13F0807F51
S21440176003D02A4A274B1A60DBE7294A254B1A60E2
S214401770234B1B6A03F07003102B05D0202BD0D1CF
S214401780224A204B1A60CCE7224A1E4B1A60C8E712
S2144017901B4B1B6A13F0807F16D01C4A194B1A60ED
S2144017A0174B1B6B03F00303022BBAD1144A916A02
S2144017B0926A1448C1F30A41036801FB0333D2B26C
S2144017C0B3FBF2F30360ACE7114A0E4B1A600C4BC6
S2144017D01B6A03F07003102B05D0202BE0D10B4A78
S2144017E0084B1A60DCE70B4A064B1A60D8E7054AF6
S2144017F013680949A1FB03135B081360704700BFD9
S21440180000060E401C00402010180E40001BB7007B
S21440181000093D0000127A00ABAAAAAA164B9842CD
S21440182013D9164B984215D9154B984216D9154BD5
S214401830984217D9144B984218D9144B984294BFE3
S214401840134A144A144B1A6070474FF08062124B8A
S2144018501A607047114A104B1A607047104A0E4B78
S2144018601A6070470F4A0C4B1A6070474FF00422BC
S214401870094B1A60704700BFBFF35E017FE7BD02A9
S2144018803FDB1C04FFCE7B05BFC2DA067FB63908B5
S2144018900005000400060004000C0E400001000491
S2144018A000020004000300040A4B1B6853B1094BB6
S2144018B01B681A180849914208DB1046054A106012
S2144018C018467047054A034B1A60F0E74FF0FF3062
S2144018D0704700BF700C4020FCFF4520F02E402093
S2144018E02DE9F0412DED028B82B0B0EE408A804665
S2144018F00F46204C002120461F4B98479FED1F7AED
S214401900C7EE087AFDEEE77ACDED017ABDF8041011
S21440191020461B4B984717F4803F16D1194B082298
S214401920C3F88020C3F88021802183F803131A600F
S21440193017F4403F19D14FF440310E48124B9847A8
S21440194002B0BDEC028BBDE8F08120460F4B9847B5
S2144019500446084E0D4D3046A8478442FBD004EB63
S214401960080104480A4B9847D8E739460148094BCE
S2144019709847E5E730180E40ED0440000000004769
S214401980D904400000E100E02D054000410540003C
S214401990590540001905400008B54FF080524FF0F9
S2144019A020510648064B984718B90122054B1A7035
S2144019B008BD0022034B1A7008BD00BF00140E403D
S2144019C0030F4000750C402038B51748174B984712
S2144019D010F0040F02D00122154B1A7010F0020FBF
S2144019E00DD00122134B1A70134B1B783BB10023CA
S2144019F0104A13700121114A11700F4A13700A4D94
S214401A00042128460E4CA04702212846A047012123
S214401A102846A04708212846A04710212846A04728
S214401A2020212846A04738BD60180E40D10440000B
S214401A3020004020770C4020760C4020740C40203C
S214401A40D504400010B582B004460C20054B98479C
S214401A500023009322464FF480710348034CA0476E
S214401A6002B010BD2D13400000120E40E50F40009E
S214401A7010B582B004460A20054B984700230093D1
S214401A80224601210348044CA04702B010BD00BFC7
S214401A902D134000000E0E40E50F400010B582B0FA
S214401AA004460C20054B98470023009322464FF0EF
S214401AB080410348034CA04702B010BD2D134000A0
S214401AC000120E40E50F400010B582B004460B20D1
S214401AD0054B984700230093224604210348044CB4
S214401AE0A04702B010BD00BF2D13400000100E40AE
S214401AF0E50F400038B504460D46064B984720B9DA
S214401B0029462046044B984738BD29462046034B75
S214401B10984738BD9D104000FB0E4000FF0E400029
S214401B2000B583B001210548054B98470190012137
S214401B300448054B984703B05DF804FB00C00040DE
S214401B4021074000000E0E40F51A400000B583B055
S214401B5001210648064B984701904FF4807105488E
S214401B60054B984703B05DF804FB00BF00000140FA
S214401B702107400000120E40F51A400000B583B021
S214401B8001210548054B9847019004210448054B20
S214401B90984703B05DF804FB004001402107400031
S214401BA000100E40F51A400010B50C480C4B9847F4
S214401BB0044610F0010F03D114F0020F08D110BDF7
S214401BC04FF480311020B1EE000A064B9847F3E7F9
S214401BD04FF080410448054B9847F0E730180E40D8
S214401BE055054000E118400000120E40F51A40002E
S214401BF02DE9F04385B006460C46174698460846FB
S214401C001C4B98471C4D009502AB03AA29464046FC
S214401C10DFF88090C847029A42F480423946304600
S214401C20164B9847039AB5FBF2F2B2FBF8F23946E8
S214401C303046134B984763B2002B13DB114A802182
S214401C40D1545B0904F01F04012202FA04F40E4A40
S214401C5042F823401022394630460C4B984705B090
S214401C60BDE8F08304F00F01094A0A44802111764A
S214401C70E7E700BF2D13400000A3E111E706400050
S214401C801107400000E400E000E100E019074000D2
S214401C90FCEC00E02907400082B070B582B00546F3
S214401CA00C4606A981E80C0002201D4B98470021EF
S214401CB028461C4B9847099B0093089B079A069911
S214401CC02846194EB0470C9B0B9A0A992846174E41
S214401CD0B04762B2E4B204F01F0101238B405609BC
S214401CE0134800EB8601C1F88030C1F88031002AE5
S214401CF00FDB0F491144802281F8002340F826303C
S214401D000D9928460B4B984702B0BDE8704002B08C
S214401D10704704F00F04084A80211155EEE700BFD3
S214401D202D134000AD014000B903400021024000A1
S214401D3000E100E0C301400014ED00E010B588B0BB
S214401D4000920B460246064903A8064CA047064B9F
S214401D501022052103A8054CA04708B010BD00BFBF
S214401D6088734000292440000C0040207909400038
S214401D70F0B58FB0384B98474FF40042374B5A6017
S214401D80374B9847374B98470120374B98470120A9
S214401D90364B98470120364B98470120354B98479D
S214401DA01020354B9847354C09234FF080524FF062
S214401DB020512046324DA8473C224FF080512046C5
S214401DC0304B9847304B009340234FF080521021C1
S214401DD020462E4DA8474FF0805120462C4B984722
S214401DE020462C4B98472C4B4FF480341C60802266
S214401DF083F81023294D0423012218212846284F12
S214401E00B84701212846274DA847274E05230122DB
S214401E101B213046B84701213046A84721461020AE
S214401E20B1EE000A214B984707AC214D0FCD0FC4A9
S214401E3095E8070084E80700062305936C4609AD3D
S214401E400FCD0FC42B68236007AB0CCB022119487B
S214401E50194CA0470FB0F0BD310D400050180E4051
S214401E60A10D4000110A4000451A4000711A40007A
S214401E709D1A4000C91A40002D13400000140E4021
S214401E800D104000E10E4000991940003911400005
S214401E90DB104000DF10400000E100E000C00040E2
S214401EA0F11B40000107400000000140E1184000DF
S214401EB06C73400060180E40991C400080B584B09A
S214401EC0404B9847404E414C414D26E03268414B8E
S214401ED01968414B1868414B984730E0404B1A68A8
S214401EE0404B1B6800930123194620463E4FB84797
S214401EF0394B1A6833681433029301210191354BEC
S214401F001B6800930B462046384FB8471BE02B789B
S214401F10002B4BD10220364B984733462D4A2E494C
S214401F202046344FB847344B00932E4B2C4A334907
S214401F302046334FB847334B1B78002BC6D1324B25
S214401F401B78002BCAD1314B1B78002BDFD02B7867
S214401F50002BDCD12E4F0523012230213846DFF8F6
S214401F60C880C047012138462A4B984701272A4B4C
S214401F701F701B4B1A681B4B1B6800933B46394629
S214401F802046DFF86480C047134B1A683368023334
S214401F90029301970F4B1B6800933B4639462046F9
S214401FA0124FB8470022194B1A70B0E70121184863
S214401FB01A4B984704211A481A4B984700232B700F
S214401FC0A8E700BF711D4000C00C402060180E40BE
S214401FD0740C4020BC0C4020B00C40203D1D4000FE
S214401FE0B40C4020C40C402071044000B1024000B4
S214401FF0D1134000C7014000B80C4020AC0C402034
S2144020004503400020004020750C4020770C4020BF
S2144020100040014001074000760C40200907400080
S21440202000100E40FB0E4000F11B400053B94AB969
S214402030002908BF00281CBF4FF0FF314FF0FF308B
S21440204000F07AB9ADF1080C6DE904CE00F006F860
S214402050DDF804E0DDE9022304B070472DE9F047DF
S2144020608C460D460446089E002B51D18A421746A0
S2144020706DD9B2FA82FEBEF1000F0BD0CEF1200C25
S21440208001FA0EF520FA0CFC02FA0EF74CEA050CA3
S21440209000FA0EF44FEA174A250CBCFBFAF81FFA72
S2144020A087F90AFB18CC45EA0C4508FB09F3AB4216
S2144020B00AD9ED1908F1FF3280F02381AB4240F295
S2144020C02081A8F102083D44ED1AA4B2B5FBFAF00F
S2144020D00AFB105544EA054400FB09F9A14509D915
S2144020E0E41900F1FF3380F00A81A14540F20781F0
S2144020F002383C44A4EB090440EA08400021002E84
S21440210061D024FA0EF4002334607360BDE8F08793
S2144021108B4207D9002E54D0002186E8210008467D
S214402120BDE8F087B3FA83F1002940F08E80AB42D9
S21440213002D3824200F2FA80841A65EB030501203E
S214402140AC46002E3FD086E81010BDE8F08712B9A6
S2144021500127B7FBF2F7B7FA87FEBEF1000F34D17E
S214402160EB1B3A0C1FFA87FC0121B3FBF2F8250C57
S21440217002FB183345EA03450CFB08F3AB4207D98C
S214402180ED1908F1FF3002D2AB4200F2D180804612
S214402190ED1AA3B2B5FBF2F002FB105543EA054434
S2144021A00CFB00FCA44507D9E41900F1FF3302D22A
S2144021B0A44500F2B8801846A4EB0C0440EA084058
S2144021C09DE731463046BDE8F087CEF1200405FA5B
S2144021D00EF307FA0EF720FA04F83A0C25FA04F440
S2144021E048EA0308B4FBF2F14FEA184502FB1144F3
S2144021F01FFA87FC45EA044501FB0CF3AB4200FAA4
S2144022000EF409D9ED1901F1FF3080F08A80AB4217
S21440221040F2878002393D44EB1A1FFA88F5B3FB3B
S214402220F2F002FB103345EA034500FB0CF3AB42E9
S21440223007D9ED1900F1FF386FD2AB426DD902389D
S2144022403D44EB1A40EA01418FE7C1F1200722FAEC
S21440225007F88B4005FA01F448EA030320FA07FE24
S2144022604FEA134CFD404EEA040EB5FBFCF94FEA2C
S2144022701E440CFB19551FFA83F844EA054509FB32
S21440228008F4AC4202FA01F200FA01FA08D9ED1855
S21440229009F1FF3043D2AC4241D9A9F102091D44AD
S2144022A02D1B1FFA8EFEB5FBFCF00CFB10554EEABC
S2144022B0054400FB08F8A04507D9E41800F1FF35AF
S2144022C029D2A04527D902381C4440EA0940A4EB4D
S2144022D00804A0FB02894C45C6464D4615D312D08D
S2144022E056B1BAEB0E0364EB050404FA07F7CB408D
S2144022F01F43CC40376074600021BDE8F087184625
S214402300F8E69046E0E6C245EAD2B8EB020E69EB44
S21440231003050138E4E72846D7E7404691E781467B
S214402320BEE7014678E702383C4445E7084608E7FA
S214402330A8F102083D442BE7704700BF70B50F4E2A
S2144023400F4D761BB61018BF002405D0013455F843
S214402350043B9847A642F9D10A4E0B4D761B05F032
S2144023605FF9B61018BF002406D0013455F8043B78
S2144023709847A642F9D170BD70BD00BF2C7640008C
S2144023802C764000347640002C76400070B48607A9
S21440239046D0541E002A41D0CAB2034602E014F189
S2144023A0FF343BD303F8012B9D07F8D1032C2ED9DD
S2144023B0CDB245EA05250F2C45EA054519D903F166
S2144023C010022646103E0F2E42F8105C42F80C5C77
S2144023D042F8085C42F8045C02F11002F2D8A4F11C
S2144023E0100222F00F0204F00F041032032C1344A4
S2144023F00DD91E462246043A032A46F8045BFAD80C
S214402400221F22F003020432134404F003042CB1CA
S214402410C9B21C4403F8011B9C42FBD170BC7047F8
S21440242014460346C2E700BF0EB4F0B59CB021ABDD
S2144024300F4953F8042B019305466FF00044086893
S21440244002954FF402774FF6FF7602A90695ADF84F
S214402450147004940794ADF8166000F00BF8029BD5
S21440246000221A701CB0BDE8F04003B0704700BFB1
S214402470240040202DE9F04FC3B00C460B91924605
S2144024800F930C9002F00CFA03681A93184603F068
S214402490D7F8A3891990190603D52369002B01F0B4
S2144024A0038000230DF1C8091393159314932793C3
S2144024B0269318931B930993CDF89490C846169389
S2144024C017939AF800305446E3B1252B02D119E011
S2144024D0252B03D014F8013F002BF9D1A4EB0A05B5
S2144024E085B1269B279AC8F800A001332A44072BBB
S2144024F0C8F80450279226937FDC08F10808099B09
S2144025002B4409932378002B7FD000231A468DF85E
S214402510773019460D939B464FF0FF3063780A900C
S21440252004F1010A0AF1010AA3F12000582800F23A
S214402530C183DFE810F03802BF03BF034002BF0389
S214402540BF03BF03BF03BF03BF0345020302BF036E
S2144025505D006B02BF0386029D039D039D039D03A2
S2144025609D039D039D039D039D03BF03BF03BF03C0
S214402570BF03BF03BF03BF03BF03BF03BF0337038E
S2144025805703BF035703BF03BF03BF03BF039803ED
S214402590BF03BF03AD03BF03BF03BF03BF03BF03F8
S2144025A05902BF03BF031E03BF03BF03BF03BF03DE
S2144025B0BF03BF03BF03BF03BF03BF03C602DB02A5
S2144025C05703570357038B02DB02BF03BF03900238
S2144025D0BF039D02CC01B4020802BF03E101BF0362
S2144025E07E00BF03BF030D020D980F9340420D902F
S2144025F04BF0040B9AF8003094E725AA0B990C98F8
S21440260003F08CF840B9C84679E7279B23B10C986D
S2144026100B9925AA03F082F80B9B9B8913F0400F79
S214402620099B18BF4FF0FF330993099843B0BDE8A4
S214402630F08F1BF0200F119340F0DD810F9A1BF0B6
S214402640100F134640F06E851BF0400F00F06A8571
S21440265014880432002501230F9200278DF87770E6
S2144026600A994A1C00F065822BF08002079254EAD1
S214402670050240F06482002940F03C84002B40F084
S214402680D7841BF001030E9300F0048642AE30233D
S21440269006F8413D0A9B0E9A9342B8BF13460893EC
S2144026A00023129317B1089B01330893079B13F03E
S2144026B00203109302D0089B02330893079B13F043
S2144026C0840540F00E830D9B089AA3EB020BBBF1EA
S2144026D0000F40F30683BBF1100F279C269A29DD96
S2144026E043462146A84610270C9C0B9D06E0ABF1BE
S2144026F0100BBBF1100F03F1080318DD0132B74889
S21440270026921031072A279183E88100EFDD25AA1B
S2144027102946204603F002F800287FF47DAFABF14F
S214402720100BBBF1100F2799269A4B46E6DC454620
S2144027300C4698460132A94B26925C44072A2794B9
S21440274088E8080800F398849DF8777008F1080830
S21440275077B1269B013301340DF177010122072B17
S2144027602794269388E8060000F3DB8308F10808E0
S214402770109B6BB1269B013302341EA90222072B05
S2144027802794269388E8060000F3D68308F10808C5
S214402790802D00F015830A9B0E9A9F1A002F36DD77
S2144027A0102F269B8E4D27DD42462146B0464FF0E1
S2144027B0100B2E460C9C0B9D04E0103F102F02F190
S2144027C0080215DD01331031072B2791269382E846
S2144027D04008F2DD25AA2946204602F09FFF002841
S2144027E07FF41AAF103F102F2799269B4A46E9DC04
S2144027F035460C464646904601333C44072B2794C4
S214402800269388E8A00000F3818308F10808079B18
S214402810DF0500F16882269B0E99C8F800600133F8
S2144028200C44072B2794C8F80410269300F34D83D6
S21440283008F10808079B5B073AD50D9B089A9D1A36
S214402840002D35DD102D269B20DD10260C9FDDF853
S2144028502CB004E0103D102D08F1080816DD0133B9
S2144028605E4A26931034072B279488E84400F1DD0F
S21440287025AA5946384602F051FF00287FF4CCAED0
S214402880103D102D279C269BC846E8DC0133534A52
S21440289026932C44072B279488E8240008DD25AA95
S2144028A00B990C9802F03AFF00287FF4B5AE279CAF
S2144028B0099B0D9A08998A42ACBF9B185B180993EE
S2144028C0002C40F00D8300232693C846F9E511936B
S2144028D01BF0200340F0E3811BF0100240F02E84F2
S2144028E01BF0400300F02A840F9913460A46043230
S2144028F00C880F920025B0E60F9A119316680024B4
S2144029008DF87740151D002E00F0A7860A9A531CB6
S21440291000F009862146304602F08AFA002800F088
S214402920E186831B0E930A940F95CDF81CB023EADC
S214402930E373089312949DF87770B3E69AF80030E4
S21440294001222B21EEE54BF0200B9AF80030E9E50A
S2144029501193002A40F09587224B18931BF0200FC6
S21440296040F011810F9A1BF0100F134640F0E183A0
S2144029701BF0400F00F0DD83043314880F930025CE
S2144029801BF0010F00F00C8154EA050300F00881AB
S21440299030239DF844208DF878308DF879204BF020
S2144029A0020B022359E69AF8003000297FF4BAADAC
S2144029B001222021B6E54BF0010B9AF80030B1E534
S2144029C00F9C23680D9318460028234603F1040302
S2144029D0FFF60AAE0F939AF80030A3E5E073400086
S2144029E0F0734000C07340004BF0100B1BF0200FFC
S2144029F011933FF423AE0F9D073525F0070303F1EF
S214402A000802D3E900450F92012326E69AF80030E3
S214402A102A2B0AF1010400F02787A3F13000092889
S214402A20A24600F2AD8600231C461AF8013B04EB92
S214402A30840400EB4404A3F130000928F5D90A9435
S214402A4072E54BF0800B9AF800306BE54BF0400B8C
S214402A509AF8003066E59AF800306C2B03BF9AF877
S214402A6001304BF0200B0AF1010A4BF0100B59E5F0
S214402A70002A40F011871BF0200F40F0F9841BF02D
S214402A80100F40F0AC841BF0400F00F0A8840F9A63
S214402A90136804320F92BDF824201A8011E50F996E
S214402AA0B34B0C6818933022782304318DF8793074
S214402AB011934BF0020B0F9100258DF878200223DE
S214402AC0CBE50F9911930A688DF8A02000230A469B
S214402AD01F468DF87730043201230893CDF81CB09A
S214402AE00A9712970F920E9328AEDFE51193002AAD
S214402AF040F0EA861BF0200F5DD11BF0100F40F02F
S214402B0008831BF0400F00F004830F99B1F9004092
S214402B100431E51722462B460F91002A73F1000335
S214402B2058DB0A999DF877704A1C4FF001037FF4F2
S214402B309BAD54EA050200F0DF81CDF81CB0012BB6
S214402B4000F07B82022B40F0068218984E462309FE
S214402B5004F00F0143EA05732A091C461546435CF8
S214402B6006F8013D54EA0503F1D1A9EB06030E939E
S214402B7090E51193002A40F0A3867E4B18931BF0F5
S214402B80200F3FF4EFAE0F9D073525F0070303F106
S214402B9008021BF0010F0F92D3E900457FF4F4AE14
S214402BA002235AE51193002A40F086864BF0100B1C
S214402BB01BF0200FA1D00F9D073525F00705D5E95E
S214402BC00023002A05F108011D4673F100030F910A
S214402BD01446A6DA2D27644265EB45058DF87770D6
S214402BE001233DE51193002A40F062860F9D07358C
S214402BF025F0070303F108020F921A6815925B68E6
S214402C001493149B159D23F00044284621464FF00C
S214402C10FF32594B03F048FE002840F04A832846CE
S214402C2021464FF0FF32544B03F020FE002840F080
S214402C30408315A80DC8149903F00EFE002840F0F6
S214402C4030859DF877704D4E4D4B2BF080000790A9
S214402C5011980322002108920A914728D8BF1E46A1
S214402C600E9212911EE54BF0080B9AF8003059E48C
S214402C70A3F1300000231C461AF8013B04EB840401
S214402C8000EB4404A3F130000928F5D90D944BE439
S214402C904BF0100B11931BF020033FF41DAE0F9D1D
S214402CA0073525F0070303F10802D3E900450F92E4
S214402CB00023D2E41193002A40F0E785119A002AB7
S214402CC03FF4A3AC002301211F4608918DF8A020B5
S214402CD0CDF81CB08DF877300A9312930E9128AE3B
S214402CE0E4E4279C34E5119B652B40F3A78015A8A8
S214402CF00DC8149903F0A6FD002800F05081269BCD
S214402D00204AC8F80020013301340122072B2794BB
S214402D102693C8F8042000F36A8308F108081F9B2E
S214402D20139A279C934203DB079BDD077FF582AD12
S214402D30269B19991A9AC8F8002001330C44072B91
S214402D40C8F804102794269300F39E8308F10808D9
S214402D50139B5E1E002E7FF76DAD102E269B0A4DF0
S214402D6040F3F58122461027DDF830B00B9C13E087
S214402D70C0734000AC734000FFFFEF7FA07340007D
S214402D809C734000DC734000F073400008F1080874
S214402D90103E102E40F3DA8101331032072B279273
S214402DA0269388E8A000F1DD25AA2146584602F081
S214402DB0B5FC00287FF430AC279A269BC846E7E748
S214402DC00D9B089A9F1A002F7FF7E5AC102F269B85
S214402DD0B64D27DD42462146B0464FF0100B2E46F4
S214402DE00C9C0B9D04E0103F102F02F1080215DDED
S214402DF001331031072B2791269382E84008F2DDF5
S214402E0025AA2946204602F089FC00287FF404AC17
S214402E10103F102F2799269B4A46E9DC35460C463C
S214402E204646904601333C44072B2794269388E831
S214402E30A00000F3328208F10808ACE4139B269FFA
S214402E40012B40F3FE81013701340123072F2794DD
S214402E502697C8F80060C8F8043000F3038208F1EB
S214402E600808199A1A9BC8F8003001371444072FEF
S214402E7027942697C8F8042000F3008208F1080833
S214402E8015A80DC8149903F0DDFC139B002840F0EC
S214402E900181013B013701361C44072F26972794B2
S214402EA0C8F80060C8F8043000F3278108F1080825
S214402EB01B9AC8F804200137144421AB072F2794E7
S214402EC02697C8F800307FF7B3AC25AA0B990C9824
S214402ED002F024FC00287FF49FAB279CC846A9E458
S214402EE025AA0B990C9802F019FC00283FF4EBAC8D
S214402EF0FFF792BBDDF81CB0012B00F03481022BAB
S214402F0025D1CDF81CB0002400251EE625AA0B9935
S214402F100C9802F003FC00287FF47EAB279CC84642
S214402F2075E425AA0B990C9802F0F8FB00287FF46C
S214402F3073AB279CC8461BE425AA0B990C9802F055
S214402F40EDFB00287FF468AB279CC84620E4CDF80C
S214402F501CB000240025494600E03146E20842EA1B
S214402F604572E80804F0070305461446303354EA31
S214402F70050201F8013C01F1FF36EED1079AD2076F
S214402F807FF5F3AD302B3FF4F0AD0239302306F831
S214402F90013CA9EB01030E930E46FFF77BBB1F993E
S214402FA0002940F32E82129B139A9342A8BF1346E1
S214402FB0002B1F460DDD269BC8F8006001333C44BD
S214402FC0072B2794C8F80470269300F31F8308F154
S214402FD00808129B002FA8BFDB1B002B1F4640F3A0
S214402FE0D680102F269B314D40F3ED814246214638
S214402FF0B0464FF0100B2E460C9C0B9D04E008325A
S214403000103F102F40F3DB8101331031072B2791FF
S214403010269382E84008F2DD25AA2946204602F09B
S2144030207DFB00287FF4F8AA2799269B4A46E7E7C7
S2144030300A9B0E934E46FFF72DBB002D08BF0A2C69
S214403040C0F08F804E46204629460A220023FEF7CF
S214403050EDFF303206F8012D2046294600230A228D
S214403060FEF7E4FF04460D4654EA0503EBD1A9EB10
S21440307006030E93FFF70EBB25AA0B990C9802F099
S2144030804DFB00287FF4C8AA9DF87770279CC84659
S214403090FFF75EBB5E1E002E7FF70AAF102E034D75
S2144030A022DD22464FF0100B0C9C06E0F0734000E9
S2144030B0103E102E08F1080815DD01371032072F94
S2144030C02792269788E82008F2DD25AA0B99204605
S2144030D002F024FB00287FF49FAA103E102E279A69
S2144030E0269FC846E9DC144601373444072F279408
S2144030F0269788E860007FF7D9AE25AA0B990C98EA
S21440310002F00CFB00287FF487AA279C269FC8461F
S214403110CEE60F9A146813460433E5170F932246FB
S2144031202B46FAE404321C680F9201230025FFF771
S21440313094BA1C6804330F93002521E40F990A467D
S21440314004320C680F920025FFF787BA1446013305
S2144031503444072B2794269388E860007FF768ABB3
S214403160B3E6DDF81CB0CDF81CB042AE30340123D7
S21440317006F8414D0E93FFF78DBA25AA0B990C9889
S21440318002F0CCFA00287FF447AA279CC8461F9A2C
S214403190139B9A4244DB079BD90741D4139B129852
S2144031A09A1A1D1A9542A8BF1546002D0EDD26997F
S2144031B0C8F80450013106442C440729C8F800607A
S2144031C02794269100F33B8208F10808002DACBFF7
S2144031D0561B1646002E7FF72DAB102E269BB04D65
S2144031E0B5DD22461027DDF830B00B9C04E008F130
S2144031F00808103E102EA9DD01331032072B279207
S214403200269388E8A000F2DD25AA2146584602F01B
S21440321085FA00287FF400AA279A269BC846E8E746
S214403220269B19981A99C8F8001001330444072BB6
S2144032302794C8F80400269300F3F58108F108089F
S214403240ACE7079BDA073FF5FEAD013701340123B3
S214403250072F27942697C8F80060C8F804307FF7F1
S21440326025AE4AE725AA0B990C9802F057FA002893
S2144032707FF4D2A9279C269FC846F2E525AA0B993B
S2144032800C9802F04BFA00287FF4C6A9279C269F8C
S214403290C846F5E54E46FFF7FDB925AA0B990C98AA
S2144032A002F03CFA00287FF4B7A9279CC846FFF7EF
S2144032B072BA159C22462046149C2346214603F0AB
S2144032C0F3FA002840F086820A9B0133119B23F0D4
S2144032D020030E9300F0E281472B00F01E814BF452
S2144032E080730793149B1F1E159B0893BBBF3B46DA
S2144032F003F1004700232D231093119B662B00F00B
S214403300BB81462B00F0DF800E9B089A452B0CBFF6
S2144033100A9B0A9D23A820A908BF5D1C0490039120
S2144033201FA802213B460290019500910C9800F0A0
S21440333073FB119B672B064640F0E0811BF0010FA4
S21440334000F046827419169A0898179B394603F07F
S21440335079FA002840F06581239BA34206D23021AB
S2144033605A1C23921970239B9C42F9D89B1B13939B
S2144033700E9B472B00F0E980119B652B40F3CD81D7
S214403380119B662B1F9B129300F09E81139B129AF3
S2144033901946914200F38A811BF0010F40F01382D8
S2144033A022EAE273089367230E921193109B002B38
S2144033B040F0C4800A939DF87770FFF773B935469E
S2144033C00C464646904601333C44072B27942693AA
S2144033D088E8A0003FF7D1AE08F10808D7E60F9A74
S2144033E0136804320F92099A1A60FFF76AB825AA42
S2144033F00B990C9802F092F900287FF40DA9C84664
S2144034008DE4269B274AC8F8002001330134012268
S214403410072B27942693C8F8042072DC08F1080886
S21440342029B9139B1BB9079BD8077FF503AA269B90
S21440343019981A9AC8F80020013302462244072BEE
S2144034402792C8F80400269300F38D8108F10808F7
S2144034500029C0F265811399C8F8006001338C18C2
S214403460072B27942693C8F804107FF7E1A92CE58C
S2144034700F9A09991368CD170846043229460F92C9
S214403480C3E90001FFF71DB825AA0B990C9802F076
S21440349045F900287FF4C0A8279CC84658E400BFDA
S2144034A0F0734000DC73400040210C9801F00AFAAB
S2144034B00B9A10601061002800F0F2810B9A4023AE
S2144034C05361FEF7EEBF23A820A90A9C04900391FF
S2144034D01FA803210290089A01943B4600910C983D
S2144034E000F09AFA25460646119B462B06EB050445
S2144034F07FF429AF3378302B00F078811F9D2C4421
S21440350021E725AA0B990C9802F008F900287FF4C9
S21440351083A81F99279CC84682E70A9B002B08BFB2
S21440352001230A93DBE630460A9402F089F80F95A9
S2144035300E90CDF81CB00346FFF7F9B92D270023AF
S2144035408DF877700A93FFF7AEB81F9B12931A4612
S214403550033304DB0A9B19469142BFF617AF119B13
S214403560023B11939DF844308DF88430129B013B0A
S214403570002B1F93BDBF129BC3F101032D222B22AC
S214403580092B8DF8852040F316810DF193042046D3
S214403590AB4D00E0104685FB0312D917C1EBA201E4
S2144035A001EB8102A3EB42023032092900F8012CDC
S2144035B00B4600F1FF32EDDC30330238D9B284429C
S2144035C002F8011C40F265810DF18600134601E0C9
S2144035D013F8011B00F8011BA342F9D101339B1AD3
S2144035E00DF18602134421AA9B1A139A1B93012AB3
S2144035F013440E9340F319810E9B199A13440E936D
S21440360023EAE373089300231293CFE625AA0B9987
S2144036100C9802F083F800287EF4FEAF279CC8463C
S214403620D7E42346A2E625AA0B990C9802F076F832
S21440363000287EF4F1AF1F9A279CC846AEE525AA1F
S2144036400B990C9802F06AF800287EF4E5AF1F9AB2
S214403650139B279C9A1AC846B8E50A9B1296062BD7
S21440366028BF06230A96374608930F95CDF81CB018
S2144036700E93744EFFF716B823A820A90A9D04900F
S21440368003911FA803210290089A01953B4600919A
S2144036900C9800F0C1F9064644192BE706230A9316
S2144036A01DE62D278DF87770FFF7CDBA199A139B34
S2144036B01344129A0E93002A40F3B08023EAE37331
S2144036C008936723119371E6002B40F3C3800A9A50
S2144036D0002A40F099801BF0010F40F09580089337
S2144036E00E9363E60A9B08930E930A900F95CDF8C7
S2144036F01CB012909DF87770FEF7D4BF119B472BF5
S2144037007FF420AE1BF0010F7FF4EEAE239B9B1B95
S21440371013930E9B472B3FF418AF1F9B129321E742
S2144037204F421031484D2FDA1024DDF830B004E017
S21440373008F10808103F102F26DD01331032072B02
S21440374027922693C8F80050C8F80440F0DD25AA12
S2144037500B99584601F0E2FF00287EF45DAF279AA9
S214403760269BC846E6E725AA0B990C9801F0D6FF9B
S21440377000287EF451AF1F99279A269BC84667E6D5
S21440378000200A90FEF7D0BE01333A44072B88E863
S214403790A0002792269308F108087FF75CAE25AA7A
S2144037A00B990C9801F0BAFF00287EF435AF279AA3
S2144037B0269BC8464FE6303330228DF887308DF84A
S2144037C0862022AB0FE7129B199A13440E9375E797
S2144037D0239BCBE5149B1D4E002BB6BF2D279DF893
S2144037E077708DF877701A4BFFF72FBA169A0898AD
S2144037F0179B394603F026F800287FF47FAEC5F1C4
S21440380001051F952C449EE5129B199A13440A9A6B
S2144038101A4422EAE2730E920893C7E5129B0E9A68
S214403820C3F101031A441346D0E71BF00103129379
S2144038307FF4E2AE0E9B23EAE3730893B6E500BF3F
S21440384067666666D4734000F0734000A873400015
S214403850A47340000A9B13B91BF0010F02D0199BBA
S2144038600133D4E701233AE70F9D9AF801302868E0
S21440387040EAE0700A9028460430A2460F90FEF7D1
S21440388051BE8DF87710FFF767B88DF87710FFF7C1
S21440389015BA0DF18603A6E68DF87710FFF7EBB85C
S2144038A00C9A0C2313604FF0FF330993FEF7BDBE0E
S2144038B08DF87710FFF79AB98DF87710FFF776B93D
S2144038C08DF87710FFF759B98DF87710FFF712B9D2
S2144038D0024B13B1024800F005B8704700000000E4
S2144038E06D484000002301461A46184601F094BF32
S2144038F002690B69934200F38D802DE9F04F03F186
S214403900FF3801F1140700F1140B57F828205BF834
S21440391028304FEA880483B00132B3FBF2F90BEB50
S2144039200403009407EB040A0193B9F1000F39D061
S21440393000252E46BC46DE465CF8044BDEF80030DA
S214403940A2B209FB0255220C2C0C09FB0242ADB276
S214403950751B96B2C6EB134615FA83F306EB234661
S2144039609BB243EA0643E2454FEA12454EF8043B13
S2144039704FEA2646E0D2009B5BF8033093B9019CA1
S214403980231F9B450CD254F8043C4BB9A4F10803C2
S21440399002E01A68043B1AB99B4508F1FF38F8D391
S2144039A0C0F81080044601F037FD00282EDB09F1F0
S2144039B001095D46002357F8041B28688AB29A1A04
S2144039C00B0C12FA80F2C3EB104303EB224392B285
S2144039D042EA0342BA4545F8042B4FEA2343EAD26B
S2144039E05BF828200BEB880382B91A1F93450BD24D
S2144039F053F8042C42B9083B02E01A68043B1AB953
S214403A009B4508F1FF38F8D3C4F81080484603B009
S214403A10BDE8F08F002070472DE9F04F016C9BB059
S214403A200446279E92469B4641B1426C4A6001231B
S214403A3093408B6001F018FB00232364BBF1000F1A
S214403A405D4635DB002333609D4BAB4315D0504677
S214403A5059460022002302F0F5FE804600282DD06D
S214403A60269A01231360289B002B00F0BD809548C2
S214403A70186001381BB0BDE8F08F269A42F20F73EB
S214403A801360BAF1000F0DD1C5F3130555B9289B45
S214403A908D48002BEED000F10803289A13601BB027
S214403AA0BDE8F08F289B8948002BE3D0C31CF4E781
S214403AB001232BF000453360AB46C5E718AA19AB87
S214403AC00192009352465B46204601F045FD2B0D81
S214403AD0814671D0CBF3130242F07F51189FCDF848
S214403AE050805046A3F2FF3641F440110022784BF6
S214403AF002F08CFA6CA3D3E9002302F03BFC6CA3E3
S214403B00D3E9002302F084FACDE90201304602F000
S214403B10CBFB69A3D3E9002302F02CFC02460B46FC
S214403B20DDE9020102F074FACDE9040102F0D2FEAA
S214403B30002202900023DDE9040102F08DFE0028F9
S214403B4040F07381029D162D00F25D81614B03EBC0
S214403B50C503D3E9000152465B4602F09BFE0028AF
S214403B6000F0C5816B1E029300230E93BF1B7B1E85
S214403B70069300F1548100230893029B002BC0F269
S214403B804581069A0D9311461944002306910C93DD
S214403B90249B092B2AD8052B40F35B86043B2493B1
S214403BA00025249B023B032B00F24286DFE813F0FD
S214403BB0D403C902DF036104189F199E3E4406F2EF
S214403BC03243202B40F38E81C3F1400306F212406D
S214403BD09D402AFA00F0284302F056FB0123013E9E
S214403BE0A1F1F871149381E73B4843E700216164F3
S214403BF02046259101F012FA4FF0FF330A93259A9A
S214403C000F9301230490206424920B93199B002B5E
S214403C10C0F2D980029A0E2A00F3D5802D4B03EBD2
S214403C20C203D3E90023CDE90823259B002BC0F22D
S214403C30BA83DDE9085650462A463346594602F0CE
S214403C40C3FC02F047FE804602F02EFB2A4633466F
S214403C5002F090FB0B4602465946504602F0D6F913
S214403C60049D08F130032B700A9B012B06460F4635
S214403C7005F1010568D00022184B02F07BFB0022BC
S214403C80002306460F4602F0DDFD002840F08880FF
S214403C90CDF82C904FF0000ADFF840B00C94DDE9E8
S214403CA0088928E0AFF3008061436F63A787D23F5F
S214403CB0B3C8608B288AC63FFB799F501344D33FD6
S214403CC00000F07FDD734000007440000C7440003C
S214403CD00000F83F38744000DC7340000000244089
S214403CE002F048FB0022002306460F4602F0AAFDDB
S214403CF0002840F0C18342464B463046394602F0E3
S214403D0063FC02F0E7FD044602F0CEFA42464B461C
S214403D1002F030FB02460B463046394602F076F952
S214403D2004F1300E049E05F801EBA5EB060E0A9E44
S214403D30B645CDE9060152465B46D1D1A046DDF8F0
S214403D402C900C9C06460F4632463B46304639463B
S214403D5002F05EF906460F4602460B46DDE90801CC
S214403D6002F07AFD48B932463B46DDE9080102F0EA
S214403D7069FDA8B118F0010F12D015F8018C049A0D
S214403D806B1E04E09A4200F0018413F8018DB8F1EE
S214403D90390F03F10105F5D008F1010883F80080DA
S214403DA04946204601F060F90022029B2A70269A76
S214403DB001331360289B002B00F09E8304981D60FF
S214403DC01BB0BDE8F08F0B9A002A3ED0249A012AF9
S214403DD040F311830A9B0C9A5F1EBA42C0F28F834F
S214403DE0D71B0A9B002BC0F28B84089D0A9B089A1F
S214403DF01A440892069A01211A442046069201F077
S214403E00CDF9064624E001230E93AFE6089A029BBE
S214403E10D21A5B420C93002308920D93B8E6C7F182
S214403E200103089300230693A7E6029D284602F066
S214403E303BFA02460B46DDE9040102F003FD00288A
S214403E407FF480AE6B1E02937CE60C9F089D0B9E13
S214403E50002D0CDD069900290B4608DDA942089A7C
S214403E60A8BF2B46D21AED1ACB1A089206930C9B83
S214403E70D3B10B9B002B00F0B782002F10DD3146EC
S214403E803A46204601F026FA4A460146064620466D
S214403E9001F08EF949468046204601F0E5F8C146D5
S214403EA00C9BDA1B40F0A1820121204601F076F9F6
S214403EB00D9B002B80461CDD01461A46204601F02D
S214403EC009FA249B012B804640F3548200230C932E
S214403ED0D8F8103008EB8303186901F00FF9C0F1E9
S214403EE0200010E0C3F120050AFA05F074E60E90B3
S214403EF03CE6249B012B40F3878200230C930D9BCA
S214403F000120002BE4D1069A104410F01F0000F068
S214403F10A180C0F12003042B40F39E84089BC0F18F
S214403F201C00034408931346034405440693089B29
S214403F30002B05DD49461A46204601F01BFA81460D
S214403F40069B002B05DD41461A46204601F012FA34
S214403F5080460E9B002B40F086800A9B002B40F349
S214403F6066820B9B002B00F09880002D05DD3146C5
S214403F702A46204601F0FEF906460C9B002B40F0F0
S214403F80378306960A9B049ADDF818B0013BD3188F
S214403F900B930AF001030C931746C2465146484617
S214403FA0FFF7A6FC31460546484601F035FA5A4624
S214403FB00A905146204601F04BFAC268804605F109
S214403FC03003002A40F02B8201464846089301F011
S214403FD023FA41460690204601F046F8069A089B8A
S214403FE032B9249921B90C9A002A00F0EF83249A1A
S214403FF00A990029C0F29F8205D1249919B90C99D3
S214404000002900F09882002A00F306830B9A3B7042
S21440401007F101089742454600F00C8349460023C5
S2144040200A22204601F02AF85E45814631464FF086
S21440403000034FF00A02204600F0EB8101F01EF824
S2144040405946064600230A22204601F017F84746FE
S2144040508346A3E71C20089B03440893069B03441F
S2144040600544069363E74146484601F0D5F90028E3
S214404070BFF673AF029F494600230A222046013FFF
S214404080029700F0FBFF0B9B8146002B40F0B68367
S2144040900F9B002B40F3BF830A93DDF810B00A9FB6
S2144040A05D4602E000F0EAFF814641464846FFF79B
S2144040B01FFC00F1300A05F801ABA5EB0B03BB4231
S2144040C04FF00A024FF0000349462046EADB049BC5
S2144040D00A9A012AACBF9B1801331D464FF0000BCD
S2144040E049460122204601F045F94146814601F005
S2144040F093F9002840F33D8215F8012C04996B1E75
S21440410004E08B4200F0AE8113F8012D392A03F10A
S2144041100105F6D001321A704146204600F0A4FF51
S214404120002E3FF43DAEBBF1000F05D0B34503D0A3
S2144041305946204600F098FF3146204600F094FF4E
S2144041402EE600230B93029B259A13440F930133CC
S214404150012B1F461E460A93B8BF01270021172F82
S21440416061640AD9012204235B0003F114008742EC
S214404170114602F10102F7D26164204600F04EFF7C
S2144041800E2E049020643FF641AD002D3FF43EAD28
S21440419002990029CDE910AB40F30282B84B01F0FA
S2144041A00F020D1103EBC203E906D3E9006740F1A5
S2144041B0AE81B44B50465946D3E9082302F004FA80
S2144041C0CDE9120105F00F054FF0030A8DB1DFF877
S2144041D0B482EA0709D530463946D8E9002302F0CA
S2144041E0C9F80AF1010A06460F466D1008F108089C
S2144041F0EFD13B463246DDE9120102F0E5F90746CB
S21440420088460E9B43B100229F4B3846414602F0FB
S21440421023FB002840F08682504602F045F83A4696
S214404220434602F0A7F8994B002201F0F1FE0A9BA4
S2144042300546A1F15076002B00F03E81029B159377
S2144042400A9B12930B9B002B00F0FA81129A8C4B20
S2144042508F4903EBC20353E90223002002F0B4F96E
S2144042602A46334601F0D2FE82468B4638464146C1
S21440427002F030FB054602F017F802460B46384679
S214404280414601F0C3FE30355FFA85F8049D064688
S2144042900F4685F8008002460B4650465946013583
S2144042A002F0F8FA002854D132463B4600207649C0
S2144042B001F0ACFE02460B465046594602F0EAFA7A
S2144042C0002840F07082129A012A00F01181129B59
S2144042D0049ACDF84890134499460DE000206A4968
S2144042E001F094FE52465B4602F0B6FA002840F0D3
S2144042F058824D4500F0FA80504659460022654B9C
S21440430002F038F80022634B82468B4630463946E8
S21440431002F030F80F46064602F0DCFA804601F01E
S214404320C3FF02460B463046394601F06FFE08F1A1
S21440433030085FFA88F852465B4605F8018B064619
S2144043400F4602F089FA32463B460028C6D0DDF8D2
S2144043504890159B029323E500230B93259B002B47
S21440436040F3DC801F461E460F930A93F6E6012371
S2144043700B93F3E7BAF1000F7FF4A8ADCBF313032A
S214404380002B7FF4BAAD2BF000473F0D3F05002FC2
S21440439000F00D82089B01330893069B0133069379
S2144043A001230C93ABE50A9B002B3FF742AC40F051
S2144043B021820022384BDDE9080101F0DBFF52463E
S2144043C05B4602F05DFADDF828804646002841D07C
S2144043D0259B049DDB4302934146204600F044FE65
S2144043E0002E3FF4DDACA7E60C9A4946204600F086
S2144043F071FF814658E5149A002A00F0878103F23F
S21440440033430C9F089DF2E4BAF1000F7FF475AD7C
S214404410B4E700F033FE474606468346BEE501460F
S2144044202046069300F020FE0122069BE0E5249BF2
S214404430022B7FF796AD0A9B002BC9D14146052239
S214404440204600F01BFE01468046484600F0E4FF4A
S2144044500028BDDD029A04993123013202920B7086
S2144044604D1CB9E7029A01320292049A3123137026
S21440447052E601230B9366E6DDF82C900C9C8FE405
S21440448038744000107440000000F03F00001C40AC
S2144044900000E03F0000244000001440504601F079
S2144044A003FF3A46434601F065FF0022C14B01F048
S2144044B0AFFD0546A1F1507641460022BE4B384638
S2144044C001F0A4FD2A46334682468B4602F0E2F9C6
S2144044D08046002840F010812A4606F100435046A8
S2144044E0594602F0B9F918B1464671E7DDF84890EA
S2144044F0DDE910ABFFF78ABB0498FFF7BBBA0C9B0D
S2144045000D9A0C97FB1A1A440D92002769E4DDE9D0
S21440451010234FF0020ACDE9122357E6002101236B
S21440452061642046259300F079FD259B0490206425
S2144045300A930F9329E6002AD046CDF818B09A463B
S21440454011DD49460122204600F014FF41468146CF
S21440455000F062FF002840F34681BAF1390F00F0C0
S214404560068105F1310AB34687F800A07D1C069EF9
S214404570D2E504D11AF0010F01D0BDE5154615F875
S214404580013C302B05F1FF32F8D0C5E504993022C6
S2144045900A70029A15F8018C01320292FFF7FCBBB2
S2144045A000F0BB80029B5D42844B05F00F0203EB9C
S2144045B0C203D3E90023DDE9100101F0DBFE2D1133
S2144045C00746884600F02C817D4E4FF0020AEB07E6
S2144045D009D538464146D6E9002301F0CBFE0AF11C
S2144045E0010A074688466D1006F10806EFD108E630
S2144045F07168204600F012FD336902339A00054682
S21440460006F10C010C3000F063FC294601222046DE
S21440461000F0B0FE0690B5E4392BCDF818B0D04681
S21440462000F0A58003F1010AB34687F800A07D1C80
S214404630069E71E55A46D046B3469A4616464FE51C
S214404640129B5E4901EBC3012A46334651E90201FB
S21440465001F090FECDE916013846414602F03AF99F
S214404660054601F021FE0B4602464146384601F01B
S214404670CDFC129B0F4604993035012B0D70064633
S21440468001F1010526D0129B049ADFF83CB1CDF823
S214404690489013444FF0000A994652465B463046CF
S2144046A0394601F067FE0F46064602F013F980468B
S2144046B001F0FAFD08F1300802460B46304639460E
S2144046C001F0A4FC05F8018B4D4506460F46E4D1A3
S2144046D0DDF848903B4B0022DDE9160101F098FCDE
S2144046E032463B4602F0B8F8002846D0159B029367
S2144046F015F8018CFFF743BB4FF000084646A9E685
S214404700089B0A9A9D1A0023FFF771BB189B0C9FC3
S214404710089DC3F13603FFF76ABBDDE910784FF01A
S214404720020A6EE50A9B002B3FF4B8AE0F9B002BA7
S2144047307FF7DEAE0022244B3846414601F01AFE93
S214404740074688460AF1010001F0AEFD3A46434668
S21440475001F010FE0022174B01F05AFC029A0F9B04
S2144047601293013A0546A1F1507615926AE5392230
S214404770B3463A70069E7D1CC0E4DDE91623002051
S214404780104901F043FC32463B4602F083F808B934
S214404790AEE6154615F8013C302B05F1FF32F8D051
S2144047A0D7E5DDF84890159B0293FFF7E8BA0C97DB
S2144047B0FFF7A5BB00001C400000144038744000C2
S2144047C0107440000000E03F00002440392BCDF834
S2144047D018B0D046DDF828B09A46C8D0BBF1000FD6
S2144047E03FF7BFAEBFE67FF4BEAE1AF0010F3FF410
S2144047F0BAAEB2E64FF000084646E9E53146002339
S2144048000A22204600F03AFC0F9B002B06460ADDA3
S2144048100A93FFF7AABB249B022B23DC0F9B3BE4A7
S2144048204FF0020AEDE4249B022B1BDC0F9BEFE7C4
S214404830002565642946204600F0F0FB4FF0FF3324
S2144048400A930F9301230490259520640B93FFF75A
S214404850DDB90125FFF7A5B93FF469ABC0F13C00CF
S214404860FFF7F9BB0F9B0A93E5E500BF38B50A4C46
S2144048700A4D641BA4100AD004F18043013B05EBAB
S2144048808305013C55F804399847002CF9D1BDE81A
S214404890384002F0CFBE00BF44764000407640002D
S2144048A0044A054B1268506B002808BF1846F03083
S2144048B0704700BF2400402064084020704700BF77
S2144048C0704700BF2DE9F04F01F10B06162E83B05E
S2144048D0054640F29E8036F0070600F1BD80B142A4
S2144048E000F2BA8000F08EFBB6F5FC7FC0F09382F3
S2144048F0730A00F0B880042B00F27981B30903F103
S214404900390003F1380EC300BF4F3B44A3F1080102
S2144049105C68A14206D10CE0002A80F2AA80E468D6
S214404920A14206D0636823F003039A1B0F2AF3DDE7
S21440493070463C69DFF8E4E2744500F0AB8163689A
S21440494023F003039A1B0F2A00F39081002AC7F82E
S21440495014E0C7F810E080F29D80B3F5007F80F049
S2144049606181DB0803F1010C99107A6857F83C80A6
S214404970C4F8088001238B4007EBCC011343083969
S214404980E1607B6047F83C40C8F80C408210012448
S21440499094409C4200F28B801C4206D120F00300DB
S2144049A064001C4200F10400FAD007EBC009CC4674
S2144049B08046DCF80C309C4507D16DE1002A80F239
S2144049C07B81DB689C4500F06781596821F00301D4
S2144049D08A1B0F2AF2DDD3F80CC0D3F80880009368
S2144049E09C19284646F0010642F001055E60C8F86C
S2144049F00CC0CCF808807C613C61C4F80CE0C4F87C
S214404A0008E065605A5000F003FB009B03F1080481
S214404A101EE0102920D800F0F5FA102618230220B0
S214404A20794F3B44A3F108025C68944200F03D8114
S214404A306368E168A66823F00303234428465A685F
S214404A40F16042F001028E605A6000F0E1FA0834EC
S214404A50204603B0BDE8F08F00240C2320462B6090
S214404A6003B0BDE8F08F40204FF400734FF03F0E88
S214404A704AE72344E1685A68A66842F00102F160BA
S214404A8028468E605A6000F0C3FA0834204603B0C9
S214404A90BDE8F08F234428465A6842F001025A6027
S214404AA000F0B6FA0834204603B0BDE8F08FBC6884
S214404AB0636823F00308B04504D3A8EB06030F2B26
S214404AC000F38580DFF85891504BD9F800201B68DA
S214404AD00132334404EB080A00F0558103F5805355
S214404AE00F3323F47F6B2BF00F0B5946284600F00C
S214404AF08FFD411C024600F0FC80824500F2F780A4
S214404B00434B19685944196000F04D81D9F80000AC
S214404B1001301BBFA2EB0A0A5144C9F800201960B5
S214404B2012F0070100F01581C1F10800C1F580516F
S214404B300244083102EB0B09C9F30B09A1EB090942
S214404B40494628460193009200F062FD431C9DE8CA
S214404B500C0000F04381801A484440F00100196878
S214404B60BA604944BC425060196017D0B8F10F0F84
S214404B7040F2FB806068A8F10C0222F0070204EBCA
S214404B80020E00F001004FF0050C10430F2A606043
S214404B90CEF804C0CEF808C000F217811D4BBC68A2
S214404BA01A68914288BF19601B4B1A689142626826
S214404BB088BF196022F003029642A2EB060301D892
S214404BC00F2B04DC284600F023FA002440E7A21905
S214404BD043F0010346F0010666602846BA6053601B
S214404BE000F016FA0834204603B0BDE8F08F142BC8
S214404BF071D9542B00F2A380330B03F16F0003F1FD
S214404C006E0EC30080E600BF54044020A80C40202F
S214404C10780C4020A00C4020A40C40205C0440208F
S214404C205C0840205A0A042A5BD9142A00F2AE8057
S214404C3002F15C01C9005B3207EB010C7958ACF11C
S214404C40080C8C4500F088804A6822F003029342A4
S214404C5073D289688C45F7D1DCF80C207B68E2601B
S214404C60C4F808C09460CCF80C408FE6A11946F012
S214404C70010C42F00106C4F804C028467961396147
S214404C80C1F80CE0C1F808E04E60E25000F0C0F910
S214404C900834DDE67B6879E608F1010818F0030F72
S214404CA00CF1080C7FF485AE2DE0DC68A34208BF0B
S214404CB002303FF43EAEBBE619441C464A68DB6809
S214404CC054F8086F42F001024A602846F3609E603E
S214404CD000F09EF9BCE603F15C0003F15B0EC300F6
S214404CE012E69A0902F13901C9003832A4E7BC42FB
S214404CF054D0BC68626822F003025DE759F8083970
S214404D00994540F0868010F0030F00F1FF30F5D152
S214404D107B6823EA04037B6064009C423FF6C7AE90
S214404D20002C3FF4C4AE1C4240467FF43EAE6400C6
S214404D301C4200F10400FAD037E68C468CE7B3F507
S214404D40AA7F15D8F30B03F1780003F1770EC30062
S214404D50DAE54FF48051EDE67B689210012101FAC6
S214404D6002F213437B60624679E70123536029E7EA
S214404D7040F25452934222D8B30C03F17D0003F123
S214404D807C0EC300C0E503F1100BAEE6542A29D8CA
S214404D901A0B02F16F01C9006E324DE7204B1968BD
S214404DA059441960B2E6CAF30B0000287FF4AEAE51
S214404DB008EB0B03BA6843F001035360EEE67F202E
S214404DC04FF47E734FF07E0E9EE504F108012846B0
S214404DD0009300F003FE009B1968DFE601204FF0C9
S214404DE00009BCE6B2F5AA7F05D8DA0B02F17801D5
S214404DF0C900773220E740F254518A4205D89A0CCF
S214404E0002F17D01C9007C3216E74FF47E717E22A6
S214404E1012E77B6880E7F00806F1080300E600BF6B
S214404E20780C402000000000000000000000000059
S214404E3001F0FF01102A2BDB10F0070F08D010F806
S214404E40013B013A8B422DD010F0070F42B3F6D10A
S214404E50F0B441EA012141EA014122F007047FF023
S214404E6000070023F0E80256083C85EA010586EA7A
S214404E70010685FA47F5A3FA87F586FA47F6A5FAB6
S214404E8087F68EB9EED1F0BC01F0FF0102F00702C2
S214404E9032B110F8013B013A83EA010313B1F8D16D
S214404EA00020704701387047002D06BF354603384E
S214404EB0073815F0010F07D1013015F4807F02BF87
S214404EC0013015F4C03F0130F0BC0138704700BFD8
S214404ED0844641EA000313F003036DD1403A41D3C0
S214404EE051F8043B40F8043B51F8043B40F8043B7F
S214404EF051F8043B40F8043B51F8043B40F8043B6F
S214404F0051F8043B40F8043B51F8043B40F8043B5E
S214404F1051F8043B40F8043B51F8043B40F8043B4E
S214404F2051F8043B40F8043B51F8043B40F8043B3E
S214404F3051F8043B40F8043B51F8043B40F8043B2E
S214404F4051F8043B40F8043B51F8043B40F8043B1E
S214404F5051F8043B40F8043B51F8043B40F8043B0E
S214404F60403ABDD2303211D351F8043B40F8043BAE
S214404F7051F8043B40F8043B51F8043B40F8043BEE
S214404F8051F8043B40F8043B103AEDD20C3205D3BE
S214404F9051F8043B40F8043B043AF9D2043208D0B6
S214404FA0D2071CBF11F8013B00F8013B01D30B8828
S214404FB003806046704700BF082A13D38B078DD006
S214404FC010F003038AD0C3F10403D21ADB071CBFD8
S214404FD011F8013B00F8013B80D331F8023B20F842
S214404FE0023B7BE7043AD9D3013A11F8013B00F87B
S214404FF0013BF9D20B7803704B7843708B78837003
S214405000604670470148FFF759BC00BFD80C4020A7
S2144050100148FFF755BC00BFD80C4020C36C70B5A4
S21440502005460C464BB153F8240080B1026843F85D
S214405030242000230361C36070BD2122042100F0B8
S2144050404DFCE86403460028EDD1002070BD0121E8
S21440505001FA04F6721D2846920000F03FFC002834
S214405060F3D044608660E4E731B1C36C4A6853F8D5
S2144050702200086043F82210704700BFF0B50C6964
S21440508083B00D46064601F1140E0027DEF80000F8
S21440509081B202FB0133010C180C02FB01019BB2EA
S2144050A0013703EB0143BC424EF8043B4FEA114341
S2144050B0ECDC3BB1AA68944207DA05EB8402013483
S2144050C053612C61284603B0F0BD696801930131F5
S2144050D03046FFF7A3FF2A69023205F10C01074666
S2144050E092000C30FFF7F4FEF26C6968019B52F8B0
S2144050F02100286042F821503D46DEE7020C1204AB
S2144051000346B2B90304102013F07F4F04BF1B02BE
S214405110083013F0704F04BF1B01043013F0404FAB
S21440512004BF9B000230002B02DB5B0003D4202030
S21440513070470020E8E70130704700BF036813F06F
S2144051400702014607D0DA0721D4980721D49B08E6
S2144051500B600220704798B298B1104613F0FF0FCC
S21440516004BF1B0A08301A0704BF1B0904309A07FD
S21440517004BF9B080230DA0707D45B0804D120201E
S21440518070471B0C1020E9E701300B607047002089
S21440519070475B080B600120704700BF10B50C4697
S2144051A00121FFF73BFF01224461026110BD00BFB1
S2144051B02DE9F04F0C691569AC4283B08B46164614
S2144051C004DA2246B3462C460E461546DBF808302F
S2144051D0DBF8041004EB05089845C8BF0131FFF71B
S2144051E01DFF00F1140909EB880AD145009005D24D
S2144051F04B46002143F8041B9A45FBD806F1140C95
S2144052000CEB85030BF1140B9C450BEB840E4CD238
S214405210CDF804A09A46DCF80050AFB2EFB10021BA
S2144052204D465E460C4656F8042B286893B281B22B
S21440523007FB0313120C010C234407FB021101EB7E
S21440524013419BB243EA0143B64545F8043B4FEA57
S2144052501144E8D82C60DCF800502D0C1DD0D9F84D
S214405260003048461C46594600220E88240C05FB52
S214405270064422449BB243EA024340F8043B51F8BA
S214405280043B04681B0CA6B205FB036303EB124306
S2144052908E454FEA1342E8D803600CF1040CE24511
S2144052A009F10409B7D8DDF804A0B8F1000F0BDD0A
S2144052B05AF8043CAAF1040A1BB105E05AF8043D2A
S2144052C013B9B8F10108F9D10098C0F8108003B0BE
S2144052D0BDE8F08F12F003032DE9F041144607466F
S2144052E02ED10D46A4101CD0BE6C96B3E3074FF0EB
S2144052F0000806D4641014D03068A8B10646E30708
S214405300F8D5324629463846FFF752FFB5B16A68A7
S214405310FB6C641053F82210296043F8225005466F
S214405320EAD12846BDE8F081324631463846FFF796
S2144053303FFF3060C0F800800646E0E70546D9E704
S2144053405A1E0B4D002355F82220FFF797FE0546C0
S214405350C8E701213846FFF761FE40F2712101227D
S2144053600023416102610646B8640360BEE700BFA1
S214405370007540002DE9F84391460A698B684FEA6C
S214405380691404EB020808F101059D420E460746E3
S214405390496804DD5B009D4201F10101FADC3846B4
S2144053A0FFF73CFE002C00F1140306DD03EB8402FD
S2144053B0002143F8041B9A42FBD1346906F11401DC
S2144053C019F01F0901EB840E1DD0C9F1200C0022F4
S2144053D00C6804FA09F4144343F8044B51F8042BC0
S2144053E08E4522FA0CF2F3D81A600AB108F102058B
S2144053F0FB6C7268013D53F822100561316043F83A
S2144054002260BDE8F883043B51F8042B43F8042F90
S2144054108E45F9D8ECE700BF30B40B690546006905
S214405420C01A0FD19B001435143119442B4401E0A7
S2144054309D4207D253F8044D51F8042D9442F7D0BC
S21440544002D3012030BC70474FF0FF30FAE700BF70
S2144054502DE9F0410F690E4611697F1A002F9046DC
S21440546017D1890006F1140502F1140E6B18714429
S21440547001E09D425CD253F8042D51F8044DA242FF
S214405480F7D05ED233462C464646754698460127A8
S21440549005E058DB06F1140508F11404002771688E
S2144054A0FFF7BCFDD8F810303669C76004EB830CB4
S2144054B0A64605EB860700F1140400235EF8041B9D
S2144054C055F8048B8AB213FA88F3090C9A1AC1EB82
S2144054D0184303EB224392B242EA0342F44544F8AF
S2144054E0042B4FEA2343E9D8AF4217D9A446AE4629
S2144054F05EF8042B13FA82F3191401EB12419BB2A7
S21440550043EA014277454CF8042B4FEA2143EFD853
S214405510ED432F4427F0030704373C44043C22B9AC
S21440552054F8043D013E002BFAD00661BDE8F081F8
S2144055300021FFF773FD0122002302614361BDE8AD
S214405540F0817446ABE7334606F1140402F11405C5
S214405550164601279846A2E72DE9F04182B0012180
S2144055601C46C3F30A571546089EFFF757FDC4F37B
S214405570130480460FB144F4801401941DB302A86E
S21440558040F8085DFFF7DAFD002834D19DE80C00AE
S214405590C8F81420002B0CBF01210221C8F818308F
S2144055A0C8F81010DFB908EB8103A0F23240306033
S2144055B01869FFF7A3FD099BC0EB411018604046F1
S2144055C002B0BDE8F08101A8FFF7B8FD019BC8F81E
S2144055D0143001212030C8F81010002FE3D0099B6A
S2144055E0A7F233470744C0F135003760186040469D
S2144055F002B0BDE8F0819DE80A00C0F1200203FA3F
S21440560002F20A43C3400193C8F81420C2E700BF21
S21440561038B5074C0023054608462360FCF744F996
S214405620431C00D038BD2368002BFBD02B6038BD10
S214405630EC0C4020000000000000000000000000CD
S21440564090F800F06DE9024520F007016FF0000C7D
S21440565010F0070491F820F040F049804FF0000425
S2144056606FF00700D1E9002391F840F000F1080000
S21440567082FA4CF2A4FA8CF283FA4CF3A2FA8CF338
S2144056804BBBD1E9022382FA4CF200F10800A4FA9F
S2144056908CF283FA4CF3A2FA8CF3E3B9D1E90423F3
S2144056A082FA4CF200F10800A4FA8CF283FA4CF32A
S2144056B0A2FA8CF37BB9D1E9062301F1200182FAE4
S2144056C04CF200F10800A4FA8CF283FA4CF3A2FAEA
S2144056D08CF3002BC6D0002A04BF04301A4612BAF8
S2144056E0B2FA82F2FDE8024500EBD2007047D1E9FB
S2144056F0002304F00305C4F100004FEAC50514F08A
S214405700040F91F840F00CFA05F562EA05021CBF5A
S21440571063EA050362464FF00004A9E72DE9F04F1F
S214405720936883B09046002B70D082460C4617682C
S2144057308D68086842E0A38913F4906F2ED065699F
S214405740216905EB4505A0EB010B05EBD5750BF183
S21440575001006D103044A8422A4684BF05462A46BA
S2144057605B0538D511465046FFF7ACF800283CD0CC
S2144057705A4621690190FFF7ABFBA289019B22F4B0
S214405780906242F08002A281A5EB0B0203EB0B0075
S214405790656123612060A2603546B3465A46494655
S2144057A000F018FAD8F80830A2682068551B58440C
S2144057B09E1BA5602060C8F808603EB37E683B46E6
S2144057C00837002EFAD0AE42D3F80090AB46B2D29D
S2144057D03546B346E2E7504600F060FA03460028F6
S2144057E0D2D12169504600F0F9F80C23CAF80030AF
S2144057F0A389002243F040034FF0FF30A381C8F84E
S2144058000820C8F8042003B0BDE8F08F0020C8F890
S214405810040003B0BDE8F08F2DE9F8432C4D064652
S214405820286898460F469146FFF748F8294B1C686B
S214405830D4F84831002B3ED05A681F2A1CDC02F1AF
S214405840010E76B103EB82010124C1F88890D3F8AB
S214405850880194402043022EC3F88801C1F808818D
S21440586023D00232C3F804E0286843F82270FFF7DA
S21440587027F80020BDE8F883174B0BB34FF4C870E9
S214405880AFF300800346D8B1D4F848210260002127
S21440589041600A46C4F848014FF0010EC0F888112E
S2144058A0C0F88C11002EDCD0CCE7D3F88C110C431A
S2144058B0C3F88C41D5E704F5A673C4F84831BBE776
S2144058C02868FEF7FDFF4FF0FF30BDE8F88300BFC5
